{
  "abi": [
    {
      "inputs": [],
      "stateMutability": "nonpayable",
      "type": "constructor"
    },
    {
      "anonymous": false,
      "inputs": [
        {
          "indexed": false,
          "internalType": "address",
          "name": "listingAddress",
          "type": "address"
        },
        {
          "indexed": false,
          "internalType": "address",
          "name": "tokenWanted",
          "type": "address"
        },
        {
          "indexed": false,
          "internalType": "uint256",
          "name": "amountWanted",
          "type": "uint256"
        }
      ],
      "name": "ListingCreated",
      "type": "event"
    },
    {
      "anonymous": false,
      "inputs": [
        {
          "indexed": true,
          "internalType": "address",
          "name": "previousOwner",
          "type": "address"
        },
        {
          "indexed": true,
          "internalType": "address",
          "name": "newOwner",
          "type": "address"
        }
      ],
      "name": "OwnershipTransferred",
      "type": "event"
    },
    {
      "inputs": [
        {
          "internalType": "address",
          "name": "user",
          "type": "address"
        }
      ],
      "name": "accrueDistributions",
      "outputs": [
        {
          "internalType": "uint256",
          "name": "",
          "type": "uint256"
        }
      ],
      "stateMutability": "nonpayable",
      "type": "function"
    },
    {
      "inputs": [],
      "name": "admin",
      "outputs": [
        {
          "internalType": "address",
          "name": "",
          "type": "address"
        }
      ],
      "stateMutability": "view",
      "type": "function"
    },
    {
      "inputs": [],
      "name": "arbitratorFee",
      "outputs": [
        {
          "internalType": "uint256",
          "name": "",
          "type": "uint256"
        }
      ],
      "stateMutability": "view",
      "type": "function"
    },
    {
      "inputs": [
        {
          "internalType": "contract SingleItemListing",
          "name": "listing",
          "type": "address"
        },
        {
          "internalType": "address",
          "name": "seller",
          "type": "address"
        }
      ],
      "name": "checkListingOriginatedHere",
      "outputs": [
        {
          "internalType": "bool",
          "name": "",
          "type": "bool"
        }
      ],
      "stateMutability": "view",
      "type": "function"
    },
    {
      "inputs": [
        {
          "internalType": "address",
          "name": "_tokenWanted",
          "type": "address"
        },
        {
          "internalType": "uint256",
          "name": "_amountWanted",
          "type": "uint256"
        },
        {
          "internalType": "address",
          "name": "arbitrator",
          "type": "address"
        },
        {
          "internalType": "string",
          "name": "imageURL",
          "type": "string"
        },
        {
          "internalType": "string",
          "name": "name",
          "type": "string"
        },
        {
          "internalType": "string",
          "name": "desc",
          "type": "string"
        }
      ],
      "name": "createListing",
      "outputs": [
        {
          "internalType": "contract SingleItemListing",
          "name": "",
          "type": "address"
        }
      ],
      "stateMutability": "nonpayable",
      "type": "function"
    },
    {
      "inputs": [],
      "name": "distributionSpeed",
      "outputs": [
        {
          "internalType": "uint256",
          "name": "",
          "type": "uint256"
        }
      ],
      "stateMutability": "view",
      "type": "function"
    },
    {
      "inputs": [],
      "name": "getActiveListings",
      "outputs": [
        {
          "internalType": "contract SingleItemListing[]",
          "name": "",
          "type": "address[]"
        }
      ],
      "stateMutability": "view",
      "type": "function"
    },
    {
      "inputs": [],
      "name": "getLength",
      "outputs": [
        {
          "internalType": "uint256",
          "name": "",
          "type": "uint256"
        }
      ],
      "stateMutability": "view",
      "type": "function"
    },
    {
      "inputs": [
        {
          "internalType": "address",
          "name": "user",
          "type": "address"
        }
      ],
      "name": "getSingleUserListings",
      "outputs": [
        {
          "internalType": "contract SingleItemListing[]",
          "name": "",
          "type": "address[]"
        }
      ],
      "stateMutability": "view",
      "type": "function"
    },
    {
      "inputs": [
        {
          "internalType": "address",
          "name": "user",
          "type": "address"
        }
      ],
      "name": "getSingleUserPurchases",
      "outputs": [
        {
          "internalType": "contract SingleItemListing[]",
          "name": "",
          "type": "address[]"
        }
      ],
      "stateMutability": "view",
      "type": "function"
    },
    {
      "inputs": [
        {
          "internalType": "uint256",
          "name": "start",
          "type": "uint256"
        },
        {
          "internalType": "uint256",
          "name": "end",
          "type": "uint256"
        }
      ],
      "name": "getactiveListingsByRange",
      "outputs": [
        {
          "internalType": "contract SingleItemListing[]",
          "name": "",
          "type": "address[]"
        }
      ],
      "stateMutability": "view",
      "type": "function"
    },
    {
      "inputs": [
        {
          "internalType": "uint256",
          "name": "",
          "type": "uint256"
        }
      ],
      "name": "listings",
      "outputs": [
        {
          "internalType": "contract SingleItemListing",
          "name": "",
          "type": "address"
        }
      ],
      "stateMutability": "view",
      "type": "function"
    },
    {
      "inputs": [],
      "name": "owner",
      "outputs": [
        {
          "internalType": "address",
          "name": "",
          "type": "address"
        }
      ],
      "stateMutability": "view",
      "type": "function"
    },
    {
      "inputs": [],
      "name": "protocolFee",
      "outputs": [
        {
          "internalType": "uint256",
          "name": "",
          "type": "uint256"
        }
      ],
      "stateMutability": "view",
      "type": "function"
    },
    {
      "inputs": [],
      "name": "renounceOwnership",
      "outputs": [],
      "stateMutability": "nonpayable",
      "type": "function"
    },
    {
      "inputs": [
        {
          "internalType": "uint256",
          "name": "_newArbitratorFee",
          "type": "uint256"
        }
      ],
      "name": "setArbitratorFee",
      "outputs": [],
      "stateMutability": "nonpayable",
      "type": "function"
    },
    {
      "inputs": [
        {
          "internalType": "uint256",
          "name": "_newProtocolFee",
          "type": "uint256"
        }
      ],
      "name": "setProtocolFee",
      "outputs": [],
      "stateMutability": "nonpayable",
      "type": "function"
    },
    {
      "inputs": [
        {
          "internalType": "address",
          "name": "newAdmin",
          "type": "address"
        }
      ],
      "name": "transferAdmin",
      "outputs": [],
      "stateMutability": "nonpayable",
      "type": "function"
    },
    {
      "inputs": [
        {
          "internalType": "address",
          "name": "newOwner",
          "type": "address"
        }
      ],
      "name": "transferOwnership",
      "outputs": [],
      "stateMutability": "nonpayable",
      "type": "function"
    },
    {
      "inputs": [
        {
          "internalType": "address",
          "name": "",
          "type": "address"
        },
        {
          "internalType": "uint256",
          "name": "",
          "type": "uint256"
        }
      ],
      "name": "userListings",
      "outputs": [
        {
          "internalType": "contract SingleItemListing",
          "name": "",
          "type": "address"
        }
      ],
      "stateMutability": "view",
      "type": "function"
    },
    {
      "inputs": [
        {
          "internalType": "address",
          "name": "user",
          "type": "address"
        },
        {
          "internalType": "address",
          "name": "listingAdd",
          "type": "address"
        }
      ],
      "name": "userPurchaseStorage",
      "outputs": [
        {
          "internalType": "contract SingleItemListing[]",
          "name": "",
          "type": "address[]"
        }
      ],
      "stateMutability": "nonpayable",
      "type": "function"
    },
    {
      "inputs": [
        {
          "internalType": "address",
          "name": "",
          "type": "address"
        },
        {
          "internalType": "uint256",
          "name": "",
          "type": "uint256"
        }
      ],
      "name": "userPurchases",
      "outputs": [
        {
          "internalType": "contract SingleItemListing",
          "name": "",
          "type": "address"
        }
      ],
      "stateMutability": "view",
      "type": "function"
    },
    {
      "inputs": [
        {
          "internalType": "address",
          "name": "",
          "type": "address"
        }
      ],
      "name": "userRatingMapping",
      "outputs": [
        {
          "internalType": "uint256",
          "name": "userAverage",
          "type": "uint256"
        },
        {
          "internalType": "uint256",
          "name": "numOfReviews",
          "type": "uint256"
        }
      ],
      "stateMutability": "view",
      "type": "function"
    },
    {
      "inputs": [
        {
          "internalType": "uint256",
          "name": "review",
          "type": "uint256"
        },
        {
          "internalType": "contract SingleItemListing",
          "name": "listing",
          "type": "address"
        }
      ],
      "name": "writeReview",
      "outputs": [
        {
          "internalType": "uint256",
          "name": "",
          "type": "uint256"
        }
      ],
      "stateMutability": "nonpayable",
      "type": "function"
    }
  ],
  "bytecode": {
    "object": "0x60806040526102ee600155606460025534801561001b57600080fd5b506100253361003c565b600380546001600160a01b0319163317905561008c565b600080546001600160a01b038381166001600160a01b0319831681178455604051919092169283917f8be0079c531659141344cd1fd0a4f28419497f9722a3daafe3b4186f6b6457e09190a35050565b6139d38061009b6000396000f3fe60806040523480156200001157600080fd5b5060043610620001755760003560e01c80638da5cb5b11620000d3578063cf2c03341162000086578063cf2c033414620002fb578063d057b6e01462000312578063de74e57b1462000352578063e1a774151462000369578063f2fde38b1462000380578063f851a440146200039757600080fd5b80638da5cb5b1462000291578063b0e21e8a14620002a3578063b3cd9e0314620002ad578063bbe7c8db14620002c4578063be1c766b14620002db578063c45a18c414620002e457600080fd5b806375829def116200012c57806375829def1462000238578063787dce3d14620001fc5780637f4b1821146200024f57806386cfa7d3146200026657806387c35bc0146200027d5780638afaacaf146200028757600080fd5b806315cab034146200017a57806327c7e2d914620001a657806345a57cb814620001d657806347cef50b14620001fc57806351aecca41462000215578063715018a6146200022e575b600080fd5b620001916200018b3660046200141a565b620003ab565b60405190151581526020015b60405180910390f35b620001bd620001b736600462001503565b62000434565b6040516001600160a01b0390911681526020016200019d565b620001ed620001e7366004620015c7565b6200054d565b6040516200019d9190620015ea565b620002136200020d36600462001639565b62000765565b005b6200021f60025481565b6040519081526020016200019d565b62000213620007a0565b620002136200024936600462001653565b620007db565b620001ed620002603660046200141a565b62000815565b620001bd620002773660046200167a565b620009c8565b620001ed62000a01565b6200021f60045481565b6000546001600160a01b0316620001bd565b6200021f60015481565b620001ed620002be36600462001653565b62000bc9565b6200021f620002d536600462001653565b62000c41565b6005546200021f565b6200021f620002f5366004620016a9565b62000ec5565b620001bd6200030c3660046200167a565b62001246565b6200033c6200032336600462001653565b6009602052600090815260409020805460019091015482565b604080519283526020830191909152016200019d565b620001bd6200036336600462001639565b62001263565b620001ed6200037a36600462001653565b6200128e565b620002136200039136600462001653565b62001304565b600354620001bd906001600160a01b031681565b600080620003b9836200128e565b90506000805b82518110156200042b576000838281518110620003e057620003e0620016d1565b60200260200101519050866001600160a01b0316816001600160a01b03161480156200040a575082155b156200041557600192505b50806200042281620016fd565b915050620003bf565b50949350505050565b600080338887896001546002548a8a8a436040516200045390620013f6565b620004689a9998979695949392919062001769565b604051809103906000f08015801562000485573d6000803e3d6000fd5b506005805460018082019092557f036b6384b5eca791c62761152d0c79bb0604c104a5fb6f4eb0703f3154bb3db00180546001600160a01b038481166001600160a01b03199283168117909355336000908152600660209081526040808320805497880181558352918190209095018054909316841790925581519283528c16928201929092529081018990529091507ffda7019d416df41d8c16e492bfaf488e2980f8357164113d2620bf1b5ffbc5e19060600160405180910390a1979650505050505050565b606060006200055d8484620017fb565b67ffffffffffffffff81111562000578576200057862001458565b604051908082528060200260200182016040528015620005a2578160200160208202803683370190505b5090506000845b848110156200075b5760058181548110620005c857620005c8620016d1565b6000918252602091829020015460408051632c17870b60e11b815290516001600160a01b039092169263582f0e16926004808401938290030181865afa15801562000617573d6000803e3d6000fd5b505050506040513d601f19601f820116820180604052508101906200063d919062001815565b8015620006d25750600581815481106200065b576200065b620016d1565b600091825260209182902001546040805163ecb70fb760e01b815290516001600160a01b039092169263ecb70fb7926004808401938290030181865afa158015620006aa573d6000803e3d6000fd5b505050506040513d601f19601f82011682018060405250810190620006d0919062001815565b155b15620007465760058181548110620006ee57620006ee620016d1565b6000918252602090912001546001600160a01b031683836200071081620016fd565b945081518110620007255762000725620016d1565b60200260200101906001600160a01b031690816001600160a01b0316815250505b806200075281620016fd565b915050620005a9565b5090949350505050565b6000546001600160a01b031633146200079b5760405162461bcd60e51b8152600401620007929062001839565b60405180910390fd5b600155565b6000546001600160a01b03163314620007cd5760405162461bcd60e51b8152600401620007929062001839565b620007d96000620013a6565b565b6003546001600160a01b03163314620007f357600080fd5b600380546001600160a01b0319166001600160a01b0392909216919091179055565b606081336001600160a01b038216146200082e57600080fd5b306001600160a01b0316816001600160a01b03166388cc58e46040518163ffffffff1660e01b8152600401602060405180830381865afa15801562000877573d6000803e3d6000fd5b505050506040513d601f19601f820116820180604052508101906200089d91906200186e565b6001600160a01b031614620008b157600080fd5b6200091b81826001600160a01b031663dbd0e1b66040518163ffffffff1660e01b8152600401602060405180830381865afa158015620008f5573d6000803e3d6000fd5b505050506040513d601f19601f820116820180604052508101906200018b91906200186e565b6200092557600080fd5b6001600160a01b03848116600081815260076020908152604080832080546001810182558185528385200180546001600160a01b0319169688169690961790955592909152825482518183028101830190935280835291929190830182828015620009ba57602002820191906000526020600020905b81546001600160a01b031681526001909101906020018083116200099b575b505050505091505092915050565b60066020528160005260406000208181548110620009e557600080fd5b6000918252602090912001546001600160a01b03169150829050565b60055460609060009067ffffffffffffffff81111562000a255762000a2562001458565b60405190808252806020026020018201604052801562000a4f578160200160208202803683370190505b5090506000805b60055481101562000bc15760006005828154811062000a795762000a79620016d1565b6000918252602091829020015460408051632c17870b60e11b815290516001600160a01b039092169350839263582f0e16926004808401938290030181865afa15801562000acb573d6000803e3d6000fd5b505050506040513d601f19601f8201168201806040525081019062000af1919062001815565b15801562000b615750806001600160a01b031663ecb70fb76040518163ffffffff1660e01b8152600401602060405180830381865afa15801562000b39573d6000803e3d6000fd5b505050506040513d601f19601f8201168201806040525081019062000b5f919062001815565b155b1562000bab5780848462000b7581620016fd565b95508151811062000b8a5762000b8a620016d1565b60200260200101906001600160a01b031690816001600160a01b0316815250505b508062000bb881620016fd565b91505062000a56565b509092915050565b6001600160a01b03811660009081526007602090815260409182902080548351818402810184019094528084526060939283018282801562000c3557602002820191906000526020600020905b81546001600160a01b0316815260019091019060200180831162000c16575b50505050509050919050565b60008062000c4f336200128e565b90506000805b825181101562000e3957600083828151811062000c765762000c76620016d1565b60200260200101519050806001600160a01b031663ecb70fb76040518163ffffffff1660e01b8152600401602060405180830381865afa15801562000cbf573d6000803e3d6000fd5b505050506040513d601f19601f8201168201806040525081019062000ce5919062001815565b801562000d545750806001600160a01b031663551f18136040518163ffffffff1660e01b8152600401602060405180830381865afa15801562000d2c573d6000803e3d6000fd5b505050506040513d601f19601f8201168201806040525081019062000d52919062001815565b155b1562000e2357806001600160a01b0316637c81ed246040518163ffffffff1660e01b8152600401600060405180830381600087803b15801562000d9657600080fd5b505af115801562000dab573d6000803e3d6000fd5b50505050806001600160a01b031663ca5f42826040518163ffffffff1660e01b8152600401602060405180830381865afa15801562000dee573d6000803e3d6000fd5b505050506040513d601f19601f8201168201806040525081019062000e1491906200188e565b62000e209084620018a8565b92505b508062000e3081620016fd565b91505062000c55565b506001600160a01b038416600090815260096020526040812054908262000e62600184620017fb565b62000e6e9190620018c3565b6001600160a01b03871660009081526008602052604081208054929350839290919062000e9d908490620018a8565b9091555050506001600160a01b03909416600090815260086020526040902054949350505050565b6000826001148062000ed75750826002145b8062000ee35750826003145b8062000eef5750826004145b8062000efb5750826005145b62000f535760405162461bcd60e51b815260206004820152602160248201527f526576696577206973206e6f74206120636f6d70617469626c65206e756d62656044820152603960f91b606482015260840162000792565b816001600160a01b0316634090613d6040518163ffffffff1660e01b8152600401602060405180830381865afa15801562000f92573d6000803e3d6000fd5b505050506040513d601f19601f8201168201806040525081019062000fb8919062001815565b15620010165760405162461bcd60e51b815260206004820152602660248201527f54686973206c697374696e672068617320616c7265616479206265656e2072656044820152651d9a595dd95960d21b606482015260840162000792565b816001600160a01b031663d63fa1466040518163ffffffff1660e01b8152600401602060405180830381865afa15801562001055573d6000803e3d6000fd5b505050506040513d601f19601f820116820180604052508101906200107b919062001815565b15156001148015620011025750816001600160a01b031663603daf9a6040518163ffffffff1660e01b8152600401602060405180830381865afa158015620010c7573d6000803e3d6000fd5b505050506040513d601f19601f82011682018060405250810190620010ed91906200186e565b6001600160a01b0316336001600160a01b0316145b6200110c57600080fd5b6000826001600160a01b031663dbd0e1b66040518163ffffffff1660e01b8152600401602060405180830381865afa1580156200114d573d6000803e3d6000fd5b505050506040513d601f19601f820116820180604052508101906200117391906200186e565b6001600160a01b03811660009081526009602052604081208054600190910154929350919086620011a58385620018c3565b620011b19190620018a8565b90506000620011c2836001620018a8565b9050866001600160a01b0316636a1c00dc6040518163ffffffff1660e01b8152600401600060405180830381600087803b1580156200120057600080fd5b505af115801562001215573d6000803e3d6000fd5b5050506001600160a01b03909516600090815260096020526040902091825560019091015550849250505092915050565b60076020528160005260406000208181548110620009e557600080fd5b600581815481106200127457600080fd5b6000918252602090912001546001600160a01b0316905081565b6001600160a01b03811660009081526006602090815260409182902080548351818402810184019094528084526060939283018282801562000c35576020028201919060005260206000209081546001600160a01b0316815260019091019060200180831162000c165750505050509050919050565b6000546001600160a01b03163314620013315760405162461bcd60e51b8152600401620007929062001839565b6001600160a01b038116620013985760405162461bcd60e51b815260206004820152602660248201527f4f776e61626c653a206e6577206f776e657220697320746865207a65726f206160448201526564647265737360d01b606482015260840162000792565b620013a381620013a6565b50565b600080546001600160a01b038381166001600160a01b0319831681178455604051919092169283917f8be0079c531659141344cd1fd0a4f28419497f9722a3daafe3b4186f6b6457e09190a35050565b6120b880620018e683390190565b6001600160a01b0381168114620013a357600080fd5b600080604083850312156200142e57600080fd5b82356200143b8162001404565b915060208301356200144d8162001404565b809150509250929050565b634e487b7160e01b600052604160045260246000fd5b600082601f8301126200148057600080fd5b813567ffffffffffffffff808211156200149e576200149e62001458565b604051601f8301601f19908116603f01168101908282118183101715620014c957620014c962001458565b81604052838152866020858801011115620014e357600080fd5b836020870160208301376000602085830101528094505050505092915050565b60008060008060008060c087890312156200151d57600080fd5b86356200152a8162001404565b9550602087013594506040870135620015438162001404565b9350606087013567ffffffffffffffff808211156200156157600080fd5b6200156f8a838b016200146e565b945060808901359150808211156200158657600080fd5b620015948a838b016200146e565b935060a0890135915080821115620015ab57600080fd5b50620015ba89828a016200146e565b9150509295509295509295565b60008060408385031215620015db57600080fd5b50508035926020909101359150565b6020808252825182820181905260009190848201906040850190845b818110156200162d5783516001600160a01b03168352928401929184019160010162001606565b50909695505050505050565b6000602082840312156200164c57600080fd5b5035919050565b6000602082840312156200166657600080fd5b8135620016738162001404565b9392505050565b600080604083850312156200168e57600080fd5b82356200169b8162001404565b946020939093013593505050565b60008060408385031215620016bd57600080fd5b8235915060208301356200144d8162001404565b634e487b7160e01b600052603260045260246000fd5b634e487b7160e01b600052601160045260246000fd5b600060018201620017125762001712620016e7565b5060010190565b6000815180845260005b81811015620017415760208185018101518683018201520162001723565b8181111562001754576000602083870101525b50601f01601f19169290920160200192915050565b6001600160a01b038b811682528a8116602083015289166040820152606081018890526080810187905260a0810186905261014060c08201819052600090620017b58382018862001719565b905082810360e0840152620017cb818762001719565b9050828103610100840152620017e2818662001719565b915050826101208301529b9a5050505050505050505050565b600082821015620018105762001810620016e7565b500390565b6000602082840312156200182857600080fd5b815180151581146200167357600080fd5b6020808252818101527f4f776e61626c653a2063616c6c6572206973206e6f7420746865206f776e6572604082015260600190565b6000602082840312156200188157600080fd5b8151620016738162001404565b600060208284031215620018a157600080fd5b5051919050565b60008219821115620018be57620018be620016e7565b500190565b6000816000190483118215151615620018e057620018e0620016e7565b50029056fe6101806040526000805461ffff191690556001805464ffffffffff60a01b191690553480156200002e57600080fd5b50604051620020b8380380620020b88339810160408190526200005191620002ea565b3360808190526001600160a01b038b811660a0528a811660c05260e089905289166101005261012087905261014086905260408051638da5cb5b60e01b81529051638da5cb5b916004808201926020929091908290030181865afa158015620000be573d6000803e3d6000fd5b505050506040513d601f19601f82011682018060405250810190620000e49190620003de565b600180546001600160a01b0319166001600160a01b03929092169190911790558351620001199060029060208701906200015a565b5082516200012f9060039060208601906200015a565b508151620001459060049060208501906200015a565b5061016052506200043f975050505050505050565b828054620001689062000403565b90600052602060002090601f0160209004810192826200018c5760008555620001d7565b82601f10620001a757805160ff1916838001178555620001d7565b82800160010185558215620001d7579182015b82811115620001d7578251825591602001919060010190620001ba565b50620001e5929150620001e9565b5090565b5b80821115620001e55760008155600101620001ea565b80516001600160a01b03811681146200021857600080fd5b919050565b634e487b7160e01b600052604160045260246000fd5b600082601f8301126200024557600080fd5b81516001600160401b03808211156200026257620002626200021d565b604051601f8301601f19908116603f011681019082821181831017156200028d576200028d6200021d565b81604052838152602092508683858801011115620002aa57600080fd5b600091505b83821015620002ce5785820183015181830184015290820190620002af565b83821115620002e05760008385830101525b9695505050505050565b6000806000806000806000806000806101408b8d0312156200030b57600080fd5b620003168b62000200565b99506200032660208c0162000200565b98506200033660408c0162000200565b60608c015160808d015160a08e015160c08f0151939b50919950975095506001600160401b03808211156200036a57600080fd5b620003788e838f0162000233565b955060e08d01519150808211156200038f57600080fd5b6200039d8e838f0162000233565b94506101008d0151915080821115620003b557600080fd5b50620003c48d828e0162000233565b9250506101208b015190509295989b9194979a5092959850565b600060208284031215620003f157600080fd5b620003fc8262000200565b9392505050565b600181811c908216806200041857607f821691505b6020821081036200043957634e487b7160e01b600052602260045260246000fd5b50919050565b60805160a05160c05160e05161010051610120516101405161016051611adf620005d9600039600081816102920152610f9e0152600081816102c701526110a8015260008181610442015261105701526000818161035a0152818161086701528181610abb01528181610c8a01528181610ccd01528181610d7301528181611003015261129f01526000818161049001528181610b7d01528181610dc20152818161103601528181611087015281816110e7015261138701526000818161033301528181610596015281816106a801528181610764015281816107eb015281816108f401528181610b5501528181610d9b01528181611143015281816111c0015281816112700152818161135f01526114bf015260008181610210015281816104bf015281816105b8015281816106ca0152818161078601528181610a8801528181610b2d01528181610bd901528181610c1c01528181610d4e015281816113370152818161140a015261149d0152600081816103cd0152818161046901528181610951015281816109940152610a240152611adf6000f3fe608060405234801561001057600080fd5b50600436106102065760003560e01c8063879f9c961161011a578063c45a0155116100ad578063ea8a1af01161007c578063ea8a1af0146104e3578063ec10f769146104eb578063ecb70fb7146104fd578063f851a4401461050a578063fa2b9a681461051d57600080fd5b8063c45a015514610464578063ca5f42821461048b578063d63fa146146104b2578063dbd0e1b6146104bd57600080fd5b8063a6f2ae3a116100e9578063a6f2ae3a1461040e578063a95c079814610416578063aa9a09121461042a578063b0e21e8a1461043d57600080fd5b8063879f9c96146103b957806388cc58e4146103cb578063a403eb2d146103f1578063a60f6811146103f957600080fd5b8063601a68381161019d5780636cc6cde11161016c5780636cc6cde1146103555780636e9960c31461037c5780637150d8ae14610384578063789015831461039d5780637c81ed24146103b157600080fd5b8063601a683814610305578063603daf9a1461030f5780636a1c00dc146103265780636a3b83551461032e57600080fd5b80634e989a4c116101d95780634e989a4c1461028d57806351aecca4146102c2578063551f1813146102e9578063582f0e16146102fd57600080fd5b806308551a531461020b5780630b8712c31461024f5780631183dbed146102675780634090613d1461027b575b600080fd5b6102327f000000000000000000000000000000000000000000000000000000000000000081565b6040516001600160a01b0390911681526020015b60405180910390f35b610257610531565b6040519015158152602001610246565b60015461025790600160a01b900460ff1681565b600154600160b81b900460ff16610257565b6102b47f000000000000000000000000000000000000000000000000000000000000000081565b604051908152602001610246565b6102b47f000000000000000000000000000000000000000000000000000000000000000081565b60015461025790600160c01b900460ff1681565b6102576107c9565b61030d61085c565b005b6000546201000090046001600160a01b0316610232565b61030d610946565b6102327f000000000000000000000000000000000000000000000000000000000000000081565b6102327f000000000000000000000000000000000000000000000000000000000000000081565b610232610990565b600054610232906201000090046001600160a01b031681565b60015461025790600160b81b900460ff1681565b61030d610a19565b60005461025790610100900460ff1681565b7f0000000000000000000000000000000000000000000000000000000000000000610232565b61030d610a63565b610401610d34565b6040516102469190611841565b61030d610fc7565b60015461025790600160b01b900460ff1681565b6102b4610438366004611906565b6113de565b6102b47f000000000000000000000000000000000000000000000000000000000000000081565b6102327f000000000000000000000000000000000000000000000000000000000000000081565b6102b47f000000000000000000000000000000000000000000000000000000000000000081565b60005460ff16610257565b7f0000000000000000000000000000000000000000000000000000000000000000610232565b61030d6113ff565b600154600160c01b900460ff16610257565b6000546102579060ff1681565b600154610232906001600160a01b031681565b60015461025790600160a81b900460ff1681565b60018054600091600160a01b90910460ff16151514801561055f575060018054600160a81b900460ff161515145b8015610578575060005460ff6101009091041615156001145b15610647576040516370a0823160e01b8152306004820152610633907f0000000000000000000000000000000000000000000000000000000000000000907f0000000000000000000000000000000000000000000000000000000000000000906001600160a01b038316906370a08231906024015b602060405180830381865afa15801561060a573d6000803e3d6000fd5b505050506040513d601f19601f8201168201806040525081019061062e9190611932565b611543565b506000805460ff1916600190811790915590565b60018054600160a01b900460ff161515148015610671575060018054600160b01b900460ff161515145b801561068a575060005460ff6101009091041615156001145b15610703576040516370a0823160e01b8152306004820152610633907f0000000000000000000000000000000000000000000000000000000000000000907f0000000000000000000000000000000000000000000000000000000000000000906001600160a01b038316906370a08231906024016105ed565b60018054600160a81b900460ff16151514801561072d575060018054600160b01b900460ff161515145b8015610746575060005460ff6101009091041615156001145b156107bf576040516370a0823160e01b8152306004820152610633907f0000000000000000000000000000000000000000000000000000000000000000907f0000000000000000000000000000000000000000000000000000000000000000906001600160a01b038316906370a08231906024016105ed565b5060005460ff1690565b6040516370a0823160e01b815230600482015260009081906001600160a01b037f000000000000000000000000000000000000000000000000000000000000000016906370a0823190602401602060405180830381865afa158015610832573d6000803e3d6000fd5b505050506040513d601f19601f820116820180604052508101906108569190611932565b11905090565b336001600160a01b037f0000000000000000000000000000000000000000000000000000000000000000161461089157600080fd5b600154600160b01b900460ff161580156108b55750600154600160a81b900460ff16155b6108be57600080fd5b60005460ff6101009091041615156001146108d857600080fd5b6000546040516370a0823160e01b8152306004820152610937917f0000000000000000000000000000000000000000000000000000000000000000916001600160a01b03620100009092048216918316906370a08231906024016105ed565b6000805460ff19166001179055565b336001600160a01b037f0000000000000000000000000000000000000000000000000000000000000000161461097b57600080fd5b6001805460ff60b81b1916600160b81b179055565b60007f00000000000000000000000000000000000000000000000000000000000000006001600160a01b0316638da5cb5b6040518163ffffffff1660e01b8152600401602060405180830381865afa1580156109f0573d6000803e3d6000fd5b505050506040513d601f19601f82011682018060405250810190610a14919061194b565b905090565b336001600160a01b037f00000000000000000000000000000000000000000000000000000000000000001614610a4e57600080fd5b6001805460ff60c01b1916600160c01b179055565b6000546201000090046001600160a01b0316331480610aaa5750336001600160a01b037f000000000000000000000000000000000000000000000000000000000000000016145b80610add5750336001600160a01b037f000000000000000000000000000000000000000000000000000000000000000016145b610ae657600080fd5b6000546201000090046001600160a01b03163303610bcf576001805460ff60a81b1916600160a81b179055600054604080516001600160a01b0362010000909304831681527f0000000000000000000000000000000000000000000000000000000000000000831660208201527f0000000000000000000000000000000000000000000000000000000000000000909216908201527f000000000000000000000000000000000000000000000000000000000000000060608201527fd1adf00770f4f2c244fc8d5cb5241db27fe0b93caefb089fdd86309256788a8a9060800160405180910390a15b6001600160a01b037f0000000000000000000000000000000000000000000000000000000000000000163303610c80576001805460ff60a01b1916600160a01b90811791829055604080517f00000000000000000000000000000000000000000000000000000000000000006001600160a01b031681529190920460ff16151560208201527f2cd5f1b7c9746d6c7f12ba3cac10bb2ea2dd5ed664c19ecfbc25cb962b0d73fd910160405180910390a15b6001600160a01b037f0000000000000000000000000000000000000000000000000000000000000000163303610d32576001805460ff60b01b1916600160b01b90811791829055604080517f00000000000000000000000000000000000000000000000000000000000000006001600160a01b031681529190920460ff16151560208201527fae19fbd29a5cc1375bcc48ea65089a54f7bfdff538fbcf979a0d75c072c324af91015b60405180910390a15b565b610d3c611785565b610d44611785565b6001600160a01b037f0000000000000000000000000000000000000000000000000000000000000000811682527f0000000000000000000000000000000000000000000000000000000000000000811660208301527f00000000000000000000000000000000000000000000000000000000000000001660408201527f0000000000000000000000000000000000000000000000000000000000000000606082015260038054610df390611974565b80601f0160208091040260200160405190810160405280929190818152602001828054610e1f90611974565b8015610e6c5780601f10610e4157610100808354040283529160200191610e6c565b820191906000526020600020905b815481529060010190602001808311610e4f57829003601f168201915b50505050508160a0018190525060028054610e8690611974565b80601f0160208091040260200160405190810160405280929190818152602001828054610eb290611974565b8015610eff5780601f10610ed457610100808354040283529160200191610eff565b820191906000526020600020905b815481529060010190602001808311610ee257829003601f168201915b5050505050816080018190525060048054610f1990611974565b80601f0160208091040260200160405190810160405280929190818152602001828054610f4590611974565b8015610f925780601f10610f6757610100808354040283529160200191610f92565b820191906000526020600020905b815481529060010190602001808311610f7557829003601f168201915b505050505060c08201527f000000000000000000000000000000000000000000000000000000000000000060e0820152919050565b600054610100900460ff1615610fdc57600080fd5b6000546201000090046001600160a01b031633148015906110265750336001600160a01b037f00000000000000000000000000000000000000000000000000000000000000001614155b61102f57600080fd5b600061107e7f00000000000000000000000000000000000000000000000000000000000000007f00000000000000000000000000000000000000000000000000000000000000006127106113de565b905060006110cf7f00000000000000000000000000000000000000000000000000000000000000007f00000000000000000000000000000000000000000000000000000000000000006127106113de565b905060006110dd82846119c4565b9050600061110b827f00000000000000000000000000000000000000000000000000000000000000006119dc565b6000805462010000600160b01b03191633620100008102919091179091556040516323b872dd60e01b81529192506001600160a01b037f000000000000000000000000000000000000000000000000000000000000000016916323b872dd9161117a91309086906004016119f3565b6020604051808303816000875af1158015611199573d6000803e3d6000fd5b505050506040513d601f19601f820116820180604052508101906111bd9190611a17565b507f00000000000000000000000000000000000000000000000000000000000000006001600160a01b03166323b872dd336111f6610990565b876040518463ffffffff1660e01b8152600401611215939291906119f3565b6020604051808303816000875af1158015611234573d6000803e3d6000fd5b505050506040513d601f19601f820116820180604052508101906112589190611a17565b506040516323b872dd60e01b81526001600160a01b037f000000000000000000000000000000000000000000000000000000000000000016906323b872dd906112c99033907f00000000000000000000000000000000000000000000000000000000000000009088906004016119f3565b6020604051808303816000875af11580156112e8573d6000803e3d6000fd5b505050506040513d601f19601f8201168201806040525081019061130c9190611a17565b506000805461ff0019166101001790819055604080516001600160a01b0362010000909304831681527f0000000000000000000000000000000000000000000000000000000000000000831660208201527f0000000000000000000000000000000000000000000000000000000000000000909216908201527f000000000000000000000000000000000000000000000000000000000000000060608201527f93f7aa200698f7035ffdcd4e6bc9dd9caf7853d59c1465ed93ac8827b6ff5c229060800160405180910390a150505050565b6000816113eb8486611a39565b6113f59190611a58565b90505b9392505050565b336001600160a01b037f0000000000000000000000000000000000000000000000000000000000000000161461143457600080fd5b60005460ff161561144457600080fd5b600054610100900460ff161561145957600080fd5b6000805460ff191660011790556040516370a0823160e01b81523060048201527ffb87149f10f1ffda9c1df55fae0d68fe643c8be0790eec2f859205ed312cd68b907f0000000000000000000000000000000000000000000000000000000000000000907f0000000000000000000000000000000000000000000000000000000000000000906001600160a01b038216906370a0823190602401602060405180830381865afa158015611510573d6000803e3d6000fd5b505050506040513d601f19601f820116820180604052508101906115349190611932565b604051610d29939291906119f3565b604080516001600160a01b038416602482015260448082018490528251808303909101815260649091019091526020810180516001600160e01b031663a9059cbb60e01b17905261159590849061159a565b505050565b60006115ef826040518060400160405280602081526020017f5361666545524332303a206c6f772d6c6576656c2063616c6c206661696c6564815250856001600160a01b03166116719092919063ffffffff16565b805190915015611595578080602001905181019061160d9190611a17565b6115955760405162461bcd60e51b815260206004820152602a60248201527f5361666545524332303a204552433230206f7065726174696f6e20646964206e6044820152691bdd081cdd58d8d9595960b21b60648201526084015b60405180910390fd5b60606113f58484600085856001600160a01b0385163b6116d35760405162461bcd60e51b815260206004820152601d60248201527f416464726573733a2063616c6c20746f206e6f6e2d636f6e74726163740000006044820152606401611668565b600080866001600160a01b031685876040516116ef9190611a7a565b60006040518083038185875af1925050503d806000811461172c576040519150601f19603f3d011682016040523d82523d6000602084013e611731565b606091505b509150915061174182828661174c565b979650505050505050565b6060831561175b5750816113f8565b82511561176b5782518084602001fd5b8160405162461bcd60e51b81526004016116689190611a96565b60405180610100016040528060006001600160a01b0316815260200160006001600160a01b0316815260200160006001600160a01b0316815260200160008152602001606081526020016060815260200160608152602001600081525090565b60005b838110156118005781810151838201526020016117e8565b8381111561180f576000848401525b50505050565b6000815180845261182d8160208601602086016117e5565b601f01601f19169290920160200192915050565b6020815261185b6020820183516001600160a01b03169052565b6000602083015161187760408401826001600160a01b03169052565b5060408301516001600160a01b0381166060840152506060830151608083015260808301516101008060a08501526118b3610120850183611815565b915060a0850151601f19808685030160c08701526118d18483611815565b935060c08701519150808685030160e0870152506118ef8382611815565b92505060e085015181850152508091505092915050565b60008060006060848603121561191b57600080fd5b505081359360208301359350604090920135919050565b60006020828403121561194457600080fd5b5051919050565b60006020828403121561195d57600080fd5b81516001600160a01b03811681146113f857600080fd5b600181811c9082168061198857607f821691505b6020821081036119a857634e487b7160e01b600052602260045260246000fd5b50919050565b634e487b7160e01b600052601160045260246000fd5b600082198211156119d7576119d76119ae565b500190565b6000828210156119ee576119ee6119ae565b500390565b6001600160a01b039384168152919092166020820152604081019190915260600190565b600060208284031215611a2957600080fd5b815180151581146113f857600080fd5b6000816000190483118215151615611a5357611a536119ae565b500290565b600082611a7557634e487b7160e01b600052601260045260246000fd5b500490565b60008251611a8c8184602087016117e5565b9190910192915050565b6020815260006113f8602083018461181556fea2646970667358221220a41266176bb95fa6a09d2b872d22fda7fb35496beea5ab40737a9f29043b1a2464736f6c634300080d0033a26469706673582212203739c91eddb8591b7b7799ff663e33d33d2f6818887877f89bdd99a87be2633364736f6c634300080d0033",
    "linkReferences": {}
  }
}