{
  "abi": [
    {
      "inputs": [],
      "stateMutability": "nonpayable",
      "type": "constructor"
    },
    {
      "anonymous": false,
      "inputs": [
        {
          "indexed": false,
          "internalType": "address",
          "name": "listingAddress",
          "type": "address"
        },
        {
          "indexed": false,
          "internalType": "address",
          "name": "tokenWanted",
          "type": "address"
        },
        {
          "indexed": false,
          "internalType": "uint256",
          "name": "amountWanted",
          "type": "uint256"
        }
      ],
      "name": "ListingCreated",
      "type": "event"
    },
    {
      "anonymous": false,
      "inputs": [
        {
          "indexed": true,
          "internalType": "address",
          "name": "previousOwner",
          "type": "address"
        },
        {
          "indexed": true,
          "internalType": "address",
          "name": "newOwner",
          "type": "address"
        }
      ],
      "name": "OwnershipTransferred",
      "type": "event"
    },
    {
      "inputs": [
        {
          "internalType": "address",
          "name": "user",
          "type": "address"
        }
      ],
      "name": "accrueDistributions",
      "outputs": [
        {
          "internalType": "uint256",
          "name": "",
          "type": "uint256"
        }
      ],
      "stateMutability": "nonpayable",
      "type": "function"
    },
    {
      "inputs": [],
      "name": "admin",
      "outputs": [
        {
          "internalType": "address",
          "name": "",
          "type": "address"
        }
      ],
      "stateMutability": "view",
      "type": "function"
    },
    {
      "inputs": [],
      "name": "arbitratorFee",
      "outputs": [
        {
          "internalType": "uint256",
          "name": "",
          "type": "uint256"
        }
      ],
      "stateMutability": "view",
      "type": "function"
    },
    {
      "inputs": [
        {
          "internalType": "address",
          "name": "_tokenWanted",
          "type": "address"
        },
        {
          "internalType": "uint256",
          "name": "_amountWanted",
          "type": "uint256"
        },
        {
          "internalType": "address",
          "name": "arbitrator",
          "type": "address"
        },
        {
          "internalType": "string",
          "name": "imageURL",
          "type": "string"
        },
        {
          "internalType": "string",
          "name": "name",
          "type": "string"
        },
        {
          "internalType": "string",
          "name": "desc",
          "type": "string"
        }
      ],
      "name": "createListing",
      "outputs": [
        {
          "internalType": "contract SingleItemListing",
          "name": "",
          "type": "address"
        }
      ],
      "stateMutability": "nonpayable",
      "type": "function"
    },
    {
      "inputs": [],
      "name": "distributionSpeed",
      "outputs": [
        {
          "internalType": "uint256",
          "name": "",
          "type": "uint256"
        }
      ],
      "stateMutability": "view",
      "type": "function"
    },
    {
      "inputs": [],
      "name": "getActiveListings",
      "outputs": [
        {
          "internalType": "contract SingleItemListing[]",
          "name": "",
          "type": "address[]"
        }
      ],
      "stateMutability": "view",
      "type": "function"
    },
    {
      "inputs": [],
      "name": "getLength",
      "outputs": [
        {
          "internalType": "uint256",
          "name": "",
          "type": "uint256"
        }
      ],
      "stateMutability": "view",
      "type": "function"
    },
    {
      "inputs": [
        {
          "internalType": "address",
          "name": "user",
          "type": "address"
        }
      ],
      "name": "getSingleUserListings",
      "outputs": [
        {
          "internalType": "contract SingleItemListing[]",
          "name": "",
          "type": "address[]"
        }
      ],
      "stateMutability": "view",
      "type": "function"
    },
    {
      "inputs": [
        {
          "internalType": "uint256",
          "name": "start",
          "type": "uint256"
        },
        {
          "internalType": "uint256",
          "name": "end",
          "type": "uint256"
        }
      ],
      "name": "getactiveListingsByRange",
      "outputs": [
        {
          "internalType": "contract SingleItemListing[]",
          "name": "",
          "type": "address[]"
        }
      ],
      "stateMutability": "view",
      "type": "function"
    },
    {
      "inputs": [
        {
          "internalType": "uint256",
          "name": "",
          "type": "uint256"
        }
      ],
      "name": "listings",
      "outputs": [
        {
          "internalType": "contract SingleItemListing",
          "name": "",
          "type": "address"
        }
      ],
      "stateMutability": "view",
      "type": "function"
    },
    {
      "inputs": [],
      "name": "owner",
      "outputs": [
        {
          "internalType": "address",
          "name": "",
          "type": "address"
        }
      ],
      "stateMutability": "view",
      "type": "function"
    },
    {
      "inputs": [],
      "name": "protocolFee",
      "outputs": [
        {
          "internalType": "uint256",
          "name": "",
          "type": "uint256"
        }
      ],
      "stateMutability": "view",
      "type": "function"
    },
    {
      "inputs": [],
      "name": "renounceOwnership",
      "outputs": [],
      "stateMutability": "nonpayable",
      "type": "function"
    },
    {
      "inputs": [
        {
          "internalType": "uint256",
          "name": "_newArbitratorFee",
          "type": "uint256"
        }
      ],
      "name": "setArbitratorFee",
      "outputs": [],
      "stateMutability": "nonpayable",
      "type": "function"
    },
    {
      "inputs": [
        {
          "internalType": "uint256",
          "name": "_newProtocolFee",
          "type": "uint256"
        }
      ],
      "name": "setProtocolFee",
      "outputs": [],
      "stateMutability": "nonpayable",
      "type": "function"
    },
    {
      "inputs": [
        {
          "internalType": "address",
          "name": "newAdmin",
          "type": "address"
        }
      ],
      "name": "transferAdmin",
      "outputs": [],
      "stateMutability": "nonpayable",
      "type": "function"
    },
    {
      "inputs": [
        {
          "internalType": "address",
          "name": "newOwner",
          "type": "address"
        }
      ],
      "name": "transferOwnership",
      "outputs": [],
      "stateMutability": "nonpayable",
      "type": "function"
    },
    {
      "inputs": [
        {
          "internalType": "address",
          "name": "",
          "type": "address"
        },
        {
          "internalType": "uint256",
          "name": "",
          "type": "uint256"
        }
      ],
      "name": "userListings",
      "outputs": [
        {
          "internalType": "contract SingleItemListing",
          "name": "",
          "type": "address"
        }
      ],
      "stateMutability": "view",
      "type": "function"
    },
    {
      "inputs": [
        {
          "internalType": "address",
          "name": "",
          "type": "address"
        }
      ],
      "name": "userRatingMapping",
      "outputs": [
        {
          "internalType": "uint256",
          "name": "userAverage",
          "type": "uint256"
        },
        {
          "internalType": "uint256",
          "name": "numOfReviews",
          "type": "uint256"
        }
      ],
      "stateMutability": "view",
      "type": "function"
    },
    {
      "inputs": [
        {
          "internalType": "uint256",
          "name": "review",
          "type": "uint256"
        },
        {
          "internalType": "contract SingleItemListing",
          "name": "listing",
          "type": "address"
        }
      ],
      "name": "writeReview",
      "outputs": [
        {
          "internalType": "uint256",
          "name": "",
          "type": "uint256"
        }
      ],
      "stateMutability": "nonpayable",
      "type": "function"
    }
  ],
  "bytecode": {
    "object": "0x60806040526102ee600155606460025534801561001b57600080fd5b506100253361003c565b600380546001600160a01b0319163317905561008c565b600080546001600160a01b038381166001600160a01b0319831681178455604051919092169283917f8be0079c531659141344cd1fd0a4f28419497f9722a3daafe3b4186f6b6457e09190a35050565b6135168061009b6000396000f3fe60806040523480156200001157600080fd5b5060043610620001455760003560e01c80638da5cb5b11620000bb578063d057b6e0116200007a578063d057b6e01462000275578063de74e57b14620002b5578063e1a7741514620002cc578063f2fde38b14620002e3578063f851a44014620002fa57600080fd5b80638da5cb5b1462000222578063b0e21e8a1462000234578063bbe7c8db146200023e578063be1c766b1462000255578063c45a18c4146200025e57600080fd5b806375829def116200010857806375829def14620001e0578063787dce3d14620001a457806386cfa7d314620001f757806387c35bc0146200020e5780638afaacaf146200021857600080fd5b806327c7e2d9146200014a57806345a57cb8146200017e57806347cef50b14620001a457806351aecca414620001bd578063715018a614620001d6575b600080fd5b620001616200015b3660046200111c565b6200030e565b6040516001600160a01b0390911681526020015b60405180910390f35b620001956200018f366004620011e0565b62000425565b60405162000175919062001203565b620001bb620001b536600462001252565b6200063d565b005b620001c760025481565b60405190815260200162000175565b620001bb62000678565b620001bb620001f13660046200126c565b620006b3565b620001616200020836600462001293565b620006ed565b6200019562000726565b620001c760045481565b6000546001600160a01b031662000161565b620001c760015481565b620001c76200024f3660046200126c565b620008ee565b600554620001c7565b620001c76200026f366004620012c2565b62000b37565b6200029f620002863660046200126c565b6008602052600090815260409020805460019091015482565b6040805192835260208301919091520162000175565b62000161620002c636600462001252565b62000eb8565b62000195620002dd3660046200126c565b62000ee3565b620001bb620002f43660046200126c565b62000f5b565b60035462000161906001600160a01b031681565b600080338887896001546002548a8a8a6040516200032c906200104d565b620003409998979695949392919062001345565b604051809103906000f0801580156200035d573d6000803e3d6000fd5b506005805460018082019092557f036b6384b5eca791c62761152d0c79bb0604c104a5fb6f4eb0703f3154bb3db00180546001600160a01b038481166001600160a01b03199283168117909355336000908152600660209081526040808320805497880181558352918190209095018054909316841790925581519283528c16928201929092529081018990529091507ffda7019d416df41d8c16e492bfaf488e2980f8357164113d2620bf1b5ffbc5e19060600160405180910390a1979650505050505050565b60606000620004358484620013e4565b67ffffffffffffffff81111562000450576200045062001071565b6040519080825280602002602001820160405280156200047a578160200160208202803683370190505b5090506000845b84811015620006335760058181548110620004a057620004a0620013fe565b6000918252602091829020015460408051632c17870b60e11b815290516001600160a01b039092169263582f0e16926004808401938290030181865afa158015620004ef573d6000803e3d6000fd5b505050506040513d601f19601f8201168201806040525081019062000515919062001414565b8015620005aa575060058181548110620005335762000533620013fe565b600091825260209182902001546040805163ecb70fb760e01b815290516001600160a01b039092169263ecb70fb7926004808401938290030181865afa15801562000582573d6000803e3d6000fd5b505050506040513d601f19601f82011682018060405250810190620005a8919062001414565b155b156200061e5760058181548110620005c657620005c6620013fe565b6000918252602090912001546001600160a01b03168383620005e88162001438565b945081518110620005fd57620005fd620013fe565b60200260200101906001600160a01b031690816001600160a01b0316815250505b806200062a8162001438565b91505062000481565b5090949350505050565b6000546001600160a01b03163314620006735760405162461bcd60e51b81526004016200066a9062001454565b60405180910390fd5b600155565b6000546001600160a01b03163314620006a55760405162461bcd60e51b81526004016200066a9062001454565b620006b1600062000ffd565b565b6003546001600160a01b03163314620006cb57600080fd5b600380546001600160a01b0319166001600160a01b0392909216919091179055565b600660205281600052604060002081815481106200070a57600080fd5b6000918252602090912001546001600160a01b03169150829050565b60055460609060009067ffffffffffffffff8111156200074a576200074a62001071565b60405190808252806020026020018201604052801562000774578160200160208202803683370190505b5090506000805b600554811015620008e6576000600582815481106200079e576200079e620013fe565b6000918252602091829020015460408051632c17870b60e11b815290516001600160a01b039092169350839263582f0e16926004808401938290030181865afa158015620007f0573d6000803e3d6000fd5b505050506040513d601f19601f8201168201806040525081019062000816919062001414565b158015620008865750806001600160a01b031663ecb70fb76040518163ffffffff1660e01b8152600401602060405180830381865afa1580156200085e573d6000803e3d6000fd5b505050506040513d601f19601f8201168201806040525081019062000884919062001414565b155b15620008d0578084846200089a8162001438565b955081518110620008af57620008af620013fe565b60200260200101906001600160a01b031690816001600160a01b0316815250505b5080620008dd8162001438565b9150506200077b565b509092915050565b600080620008fc3362000ee3565b90506000805b825181101562000ae6576000838281518110620009235762000923620013fe565b60200260200101519050806001600160a01b031663ecb70fb76040518163ffffffff1660e01b8152600401602060405180830381865afa1580156200096c573d6000803e3d6000fd5b505050506040513d601f19601f8201168201806040525081019062000992919062001414565b801562000a015750806001600160a01b031663551f18136040518163ffffffff1660e01b8152600401602060405180830381865afa158015620009d9573d6000803e3d6000fd5b505050506040513d601f19601f82011682018060405250810190620009ff919062001414565b155b1562000ad057806001600160a01b0316637c81ed246040518163ffffffff1660e01b8152600401600060405180830381600087803b15801562000a4357600080fd5b505af115801562000a58573d6000803e3d6000fd5b50505050806001600160a01b031663ca5f42826040518163ffffffff1660e01b8152600401602060405180830381865afa15801562000a9b573d6000803e3d6000fd5b505050506040513d601f19601f8201168201806040525081019062000ac1919062001489565b62000acd9084620014a3565b92505b508062000add8162001438565b91505062000902565b506001600160a01b0384166000908152600760205260408120805483929062000b11908490620014a3565b9091555050506001600160a01b0390921660009081526007602052604090205492915050565b6000826001148062000b495750826002145b8062000b555750826003145b8062000b615750826004145b8062000b6d5750826005145b62000bc55760405162461bcd60e51b815260206004820152602160248201527f526576696577206973206e6f74206120636f6d70617469626c65206e756d62656044820152603960f91b60648201526084016200066a565b816001600160a01b0316634090613d6040518163ffffffff1660e01b8152600401602060405180830381865afa15801562000c04573d6000803e3d6000fd5b505050506040513d601f19601f8201168201806040525081019062000c2a919062001414565b1562000c885760405162461bcd60e51b815260206004820152602660248201527f54686973206c697374696e672068617320616c7265616479206265656e2072656044820152651d9a595dd95960d21b60648201526084016200066a565b816001600160a01b031663d63fa1466040518163ffffffff1660e01b8152600401602060405180830381865afa15801562000cc7573d6000803e3d6000fd5b505050506040513d601f19601f8201168201806040525081019062000ced919062001414565b1515600114801562000d745750816001600160a01b031663603daf9a6040518163ffffffff1660e01b8152600401602060405180830381865afa15801562000d39573d6000803e3d6000fd5b505050506040513d601f19601f8201168201806040525081019062000d5f9190620014be565b6001600160a01b0316336001600160a01b0316145b62000d7e57600080fd5b6000826001600160a01b031663dbd0e1b66040518163ffffffff1660e01b8152600401602060405180830381865afa15801562000dbf573d6000803e3d6000fd5b505050506040513d601f19601f8201168201806040525081019062000de59190620014be565b6001600160a01b0381166000908152600860205260408120805460019091015492935091908662000e178385620014de565b62000e239190620014a3565b9050600062000e34836001620014a3565b9050866001600160a01b0316636a1c00dc6040518163ffffffff1660e01b8152600401600060405180830381600087803b15801562000e7257600080fd5b505af115801562000e87573d6000803e3d6000fd5b5050506001600160a01b03909516600090815260086020526040902091825560019091015550849250505092915050565b6005818154811062000ec957600080fd5b6000918252602090912001546001600160a01b0316905081565b6001600160a01b03811660009081526006602090815260409182902080548351818402810184019094528084526060939283018282801562000f4f57602002820191906000526020600020905b81546001600160a01b0316815260019091019060200180831162000f30575b50505050509050919050565b6000546001600160a01b0316331462000f885760405162461bcd60e51b81526004016200066a9062001454565b6001600160a01b03811662000fef5760405162461bcd60e51b815260206004820152602660248201527f4f776e61626c653a206e6577206f776e657220697320746865207a65726f206160448201526564647265737360d01b60648201526084016200066a565b62000ffa8162000ffd565b50565b600080546001600160a01b038381166001600160a01b0319831681178455604051919092169283917f8be0079c531659141344cd1fd0a4f28419497f9722a3daafe3b4186f6b6457e09190a35050565b611fe0806200150183390190565b6001600160a01b038116811462000ffa57600080fd5b634e487b7160e01b600052604160045260246000fd5b600082601f8301126200109957600080fd5b813567ffffffffffffffff80821115620010b757620010b762001071565b604051601f8301601f19908116603f01168101908282118183101715620010e257620010e262001071565b81604052838152866020858801011115620010fc57600080fd5b836020870160208301376000602085830101528094505050505092915050565b60008060008060008060c087890312156200113657600080fd5b863562001143816200105b565b95506020870135945060408701356200115c816200105b565b9350606087013567ffffffffffffffff808211156200117a57600080fd5b620011888a838b0162001087565b945060808901359150808211156200119f57600080fd5b620011ad8a838b0162001087565b935060a0890135915080821115620011c457600080fd5b50620011d389828a0162001087565b9150509295509295509295565b60008060408385031215620011f457600080fd5b50508035926020909101359150565b6020808252825182820181905260009190848201906040850190845b81811015620012465783516001600160a01b0316835292840192918401916001016200121f565b50909695505050505050565b6000602082840312156200126557600080fd5b5035919050565b6000602082840312156200127f57600080fd5b81356200128c816200105b565b9392505050565b60008060408385031215620012a757600080fd5b8235620012b4816200105b565b946020939093013593505050565b60008060408385031215620012d657600080fd5b823591506020830135620012ea816200105b565b809150509250929050565b6000815180845260005b818110156200131d57602081850181015186830182015201620012ff565b8181111562001330576000602083870101525b50601f01601f19169290920160200192915050565b6001600160a01b038a81168252898116602083015288166040820152606081018790526080810186905260a0810185905261012060c082018190526000906200139183820187620012f5565b905082810360e0840152620013a78186620012f5565b9050828103610100840152620013be8185620012f5565b9c9b505050505050505050505050565b634e487b7160e01b600052601160045260246000fd5b600082821015620013f957620013f9620013ce565b500390565b634e487b7160e01b600052603260045260246000fd5b6000602082840312156200142757600080fd5b815180151581146200128c57600080fd5b6000600182016200144d576200144d620013ce565b5060010190565b6020808252818101527f4f776e61626c653a2063616c6c6572206973206e6f7420746865206f776e6572604082015260600190565b6000602082840312156200149c57600080fd5b5051919050565b60008219821115620014b957620014b9620013ce565b500190565b600060208284031215620014d157600080fd5b81516200128c816200105b565b6000816000190483118215151615620014fb57620014fb620013ce565b50029056fe6101606040526000805461ffff191690556001805464ffffffffff60a01b191690553480156200002e57600080fd5b5060405162001fe038038062001fe08339810160408190526200005191620002e5565b3360808190526001600160a01b038a811660a05289811660c05260e088905288166101005261012086905261014085905260408051638da5cb5b60e01b81529051638da5cb5b916004808201926020929091908290030181865afa158015620000be573d6000803e3d6000fd5b505050506040513d601f19601f82011682018060405250810190620000e49190620003ce565b600180546001600160a01b0319166001600160a01b039290921691909117905582516200011990600290602086019062000155565b5081516200012f90600390602085019062000155565b5080516200014590600490602084019062000155565b505050505050505050506200042f565b8280546200016390620003f3565b90600052602060002090601f016020900481019282620001875760008555620001d2565b82601f10620001a257805160ff1916838001178555620001d2565b82800160010185558215620001d2579182015b82811115620001d2578251825591602001919060010190620001b5565b50620001e0929150620001e4565b5090565b5b80821115620001e05760008155600101620001e5565b80516001600160a01b03811681146200021357600080fd5b919050565b634e487b7160e01b600052604160045260246000fd5b600082601f8301126200024057600080fd5b81516001600160401b03808211156200025d576200025d62000218565b604051601f8301601f19908116603f0116810190828211818310171562000288576200028862000218565b81604052838152602092508683858801011115620002a557600080fd5b600091505b83821015620002c95785820183015181830184015290820190620002aa565b83821115620002db5760008385830101525b9695505050505050565b60008060008060008060008060006101208a8c0312156200030557600080fd5b620003108a620001fb565b98506200032060208b01620001fb565b97506200033060408b01620001fb565b60608b015160808c015160a08d015160c08e0151939a50919850965094506001600160401b03808211156200036457600080fd5b620003728d838e016200022e565b945060e08c01519150808211156200038957600080fd5b620003978d838e016200022e565b93506101008c0151915080821115620003af57600080fd5b50620003be8c828d016200022e565b9150509295985092959850929598565b600060208284031215620003e157600080fd5b620003ec82620001fb565b9392505050565b600181811c908216806200040857607f821691505b6020821081036200042957634e487b7160e01b600052602260045260246000fd5b50919050565b60805160a05160c05160e051610100516101205161014051611a30620005b06000396000818161027c015261101f0152600081816103df0152610fce01526000818161031d0152818161080401528181610a5801528181610c2701528181610c6a01528181610d1001528181610f7a015261121601526000818161042d01528181610b1a01528181610d5f01528181610fad01528181610ffe0152818161105e01526112fe0152600081816102f6015281816105330152818161064501528181610701015281816107880152818161089101528181610af201528181610d38015281816110ba01528181611137015281816111e7015281816112d601526114360152600081816101fa0152818161045c01528181610555015281816106670152818161072301528181610a2501528181610aca01528181610b7601528181610bb901528181610ceb015281816112ae015281816113810152611414015260008181610406015281816108ee0152818161093101526109c10152611a306000f3fe608060405234801561001057600080fd5b50600436106101f05760003560e01c8063879f9c961161010f578063ca5f4282116100a2578063ec10f76911610071578063ec10f76914610488578063ecb70fb71461049a578063f851a440146104a7578063fa2b9a68146104ba57600080fd5b8063ca5f428214610428578063d63fa1461461044f578063dbd0e1b61461045a578063ea8a1af01461048057600080fd5b8063a95c0798116100de578063a95c0798146103b3578063aa9a0912146103c7578063b0e21e8a146103da578063c45a01551461040157600080fd5b8063879f9c961461037c578063a403eb2d1461038e578063a60f681114610396578063a6f2ae3a146103ab57600080fd5b8063603daf9a116101875780636e9960c3116101565780636e9960c31461033f5780637150d8ae1461034757806378901583146103605780637c81ed241461037457600080fd5b8063603daf9a146102d25780636a1c00dc146102e95780636a3b8355146102f15780636cc6cde11461031857600080fd5b806351aecca4116101c357806351aecca414610277578063551f1813146102ac578063582f0e16146102c0578063601a6838146102c857600080fd5b806308551a53146101f55780630b8712c3146102395780631183dbed146102515780634090613d14610265575b600080fd5b61021c7f000000000000000000000000000000000000000000000000000000000000000081565b6040516001600160a01b0390911681526020015b60405180910390f35b6102416104ce565b6040519015158152602001610230565b60015461024190600160a01b900460ff1681565b600154600160b81b900460ff16610241565b61029e7f000000000000000000000000000000000000000000000000000000000000000081565b604051908152602001610230565b60015461024190600160c01b900460ff1681565b610241610766565b6102d06107f9565b005b6000546201000090046001600160a01b031661021c565b6102d06108e3565b61021c7f000000000000000000000000000000000000000000000000000000000000000081565b61021c7f000000000000000000000000000000000000000000000000000000000000000081565b61021c61092d565b60005461021c906201000090046001600160a01b031681565b60015461024190600160b81b900460ff1681565b6102d06109b6565b60005461024190610100900460ff1681565b6102d0610a00565b61039e610cd1565b60405161023091906117b0565b6102d0610f3e565b60015461024190600160b01b900460ff1681565b61029e6103d5366004611857565b611355565b61029e7f000000000000000000000000000000000000000000000000000000000000000081565b61021c7f000000000000000000000000000000000000000000000000000000000000000081565b61029e7f000000000000000000000000000000000000000000000000000000000000000081565b60005460ff16610241565b7f000000000000000000000000000000000000000000000000000000000000000061021c565b6102d0611376565b600154600160c01b900460ff16610241565b6000546102419060ff1681565b60015461021c906001600160a01b031681565b60015461024190600160a81b900460ff1681565b60018054600091600160a01b90910460ff1615151480156104fc575060018054600160a81b900460ff161515145b8015610515575060005460ff6101009091041615156001145b156105e4576040516370a0823160e01b81523060048201526105d0907f0000000000000000000000000000000000000000000000000000000000000000907f0000000000000000000000000000000000000000000000000000000000000000906001600160a01b038316906370a08231906024015b602060405180830381865afa1580156105a7573d6000803e3d6000fd5b505050506040513d601f19601f820116820180604052508101906105cb9190611883565b6114ba565b506000805460ff1916600190811790915590565b60018054600160a01b900460ff16151514801561060e575060018054600160b01b900460ff161515145b8015610627575060005460ff6101009091041615156001145b156106a0576040516370a0823160e01b81523060048201526105d0907f0000000000000000000000000000000000000000000000000000000000000000907f0000000000000000000000000000000000000000000000000000000000000000906001600160a01b038316906370a082319060240161058a565b60018054600160a81b900460ff1615151480156106ca575060018054600160b01b900460ff161515145b80156106e3575060005460ff6101009091041615156001145b1561075c576040516370a0823160e01b81523060048201526105d0907f0000000000000000000000000000000000000000000000000000000000000000907f0000000000000000000000000000000000000000000000000000000000000000906001600160a01b038316906370a082319060240161058a565b5060005460ff1690565b6040516370a0823160e01b815230600482015260009081906001600160a01b037f000000000000000000000000000000000000000000000000000000000000000016906370a0823190602401602060405180830381865afa1580156107cf573d6000803e3d6000fd5b505050506040513d601f19601f820116820180604052508101906107f39190611883565b11905090565b336001600160a01b037f0000000000000000000000000000000000000000000000000000000000000000161461082e57600080fd5b600154600160b01b900460ff161580156108525750600154600160a81b900460ff16155b61085b57600080fd5b60005460ff61010090910416151560011461087557600080fd5b6000546040516370a0823160e01b81523060048201526108d4917f0000000000000000000000000000000000000000000000000000000000000000916001600160a01b03620100009092048216918316906370a082319060240161058a565b6000805460ff19166001179055565b336001600160a01b037f0000000000000000000000000000000000000000000000000000000000000000161461091857600080fd5b6001805460ff60b81b1916600160b81b179055565b60007f00000000000000000000000000000000000000000000000000000000000000006001600160a01b0316638da5cb5b6040518163ffffffff1660e01b8152600401602060405180830381865afa15801561098d573d6000803e3d6000fd5b505050506040513d601f19601f820116820180604052508101906109b1919061189c565b905090565b336001600160a01b037f000000000000000000000000000000000000000000000000000000000000000016146109eb57600080fd5b6001805460ff60c01b1916600160c01b179055565b6000546201000090046001600160a01b0316331480610a475750336001600160a01b037f000000000000000000000000000000000000000000000000000000000000000016145b80610a7a5750336001600160a01b037f000000000000000000000000000000000000000000000000000000000000000016145b610a8357600080fd5b6000546201000090046001600160a01b03163303610b6c576001805460ff60a81b1916600160a81b179055600054604080516001600160a01b0362010000909304831681527f0000000000000000000000000000000000000000000000000000000000000000831660208201527f0000000000000000000000000000000000000000000000000000000000000000909216908201527f000000000000000000000000000000000000000000000000000000000000000060608201527fd1adf00770f4f2c244fc8d5cb5241db27fe0b93caefb089fdd86309256788a8a9060800160405180910390a15b6001600160a01b037f0000000000000000000000000000000000000000000000000000000000000000163303610c1d576001805460ff60a01b1916600160a01b90811791829055604080517f00000000000000000000000000000000000000000000000000000000000000006001600160a01b031681529190920460ff16151560208201527f2cd5f1b7c9746d6c7f12ba3cac10bb2ea2dd5ed664c19ecfbc25cb962b0d73fd910160405180910390a15b6001600160a01b037f0000000000000000000000000000000000000000000000000000000000000000163303610ccf576001805460ff60b01b1916600160b01b90811791829055604080517f00000000000000000000000000000000000000000000000000000000000000006001600160a01b031681529190920460ff16151560208201527fae19fbd29a5cc1375bcc48ea65089a54f7bfdff538fbcf979a0d75c072c324af91015b60405180910390a15b565b610cd96116fc565b610ce16116fc565b6001600160a01b037f0000000000000000000000000000000000000000000000000000000000000000811682527f0000000000000000000000000000000000000000000000000000000000000000811660208301527f00000000000000000000000000000000000000000000000000000000000000001660408201527f0000000000000000000000000000000000000000000000000000000000000000606082015260038054610d90906118c5565b80601f0160208091040260200160405190810160405280929190818152602001828054610dbc906118c5565b8015610e095780601f10610dde57610100808354040283529160200191610e09565b820191906000526020600020905b815481529060010190602001808311610dec57829003601f168201915b50505050508160a0018190525060028054610e23906118c5565b80601f0160208091040260200160405190810160405280929190818152602001828054610e4f906118c5565b8015610e9c5780601f10610e7157610100808354040283529160200191610e9c565b820191906000526020600020905b815481529060010190602001808311610e7f57829003601f168201915b5050505050816080018190525060048054610eb6906118c5565b80601f0160208091040260200160405190810160405280929190818152602001828054610ee2906118c5565b8015610f2f5780601f10610f0457610100808354040283529160200191610f2f565b820191906000526020600020905b815481529060010190602001808311610f1257829003601f168201915b505050505060c0820152919050565b600054610100900460ff1615610f5357600080fd5b6000546201000090046001600160a01b03163314801590610f9d5750336001600160a01b037f00000000000000000000000000000000000000000000000000000000000000001614155b610fa657600080fd5b6000610ff57f00000000000000000000000000000000000000000000000000000000000000007f0000000000000000000000000000000000000000000000000000000000000000612710611355565b905060006110467f00000000000000000000000000000000000000000000000000000000000000007f0000000000000000000000000000000000000000000000000000000000000000612710611355565b905060006110548284611915565b90506000611082827f000000000000000000000000000000000000000000000000000000000000000061192d565b6000805462010000600160b01b03191633620100008102919091179091556040516323b872dd60e01b81529192506001600160a01b037f000000000000000000000000000000000000000000000000000000000000000016916323b872dd916110f19130908690600401611944565b6020604051808303816000875af1158015611110573d6000803e3d6000fd5b505050506040513d601f19601f820116820180604052508101906111349190611968565b507f00000000000000000000000000000000000000000000000000000000000000006001600160a01b03166323b872dd3361116d61092d565b876040518463ffffffff1660e01b815260040161118c93929190611944565b6020604051808303816000875af11580156111ab573d6000803e3d6000fd5b505050506040513d601f19601f820116820180604052508101906111cf9190611968565b506040516323b872dd60e01b81526001600160a01b037f000000000000000000000000000000000000000000000000000000000000000016906323b872dd906112409033907f0000000000000000000000000000000000000000000000000000000000000000908890600401611944565b6020604051808303816000875af115801561125f573d6000803e3d6000fd5b505050506040513d601f19601f820116820180604052508101906112839190611968565b506000805461ff0019166101001790819055604080516001600160a01b0362010000909304831681527f0000000000000000000000000000000000000000000000000000000000000000831660208201527f0000000000000000000000000000000000000000000000000000000000000000909216908201527f000000000000000000000000000000000000000000000000000000000000000060608201527f93f7aa200698f7035ffdcd4e6bc9dd9caf7853d59c1465ed93ac8827b6ff5c229060800160405180910390a150505050565b600081611362848661198a565b61136c91906119a9565b90505b9392505050565b336001600160a01b037f000000000000000000000000000000000000000000000000000000000000000016146113ab57600080fd5b60005460ff16156113bb57600080fd5b600054610100900460ff16156113d057600080fd5b6000805460ff191660011790556040516370a0823160e01b81523060048201527ffb87149f10f1ffda9c1df55fae0d68fe643c8be0790eec2f859205ed312cd68b907f0000000000000000000000000000000000000000000000000000000000000000907f0000000000000000000000000000000000000000000000000000000000000000906001600160a01b038216906370a0823190602401602060405180830381865afa158015611487573d6000803e3d6000fd5b505050506040513d601f19601f820116820180604052508101906114ab9190611883565b604051610cc693929190611944565b604080516001600160a01b038416602482015260448082018490528251808303909101815260649091019091526020810180516001600160e01b031663a9059cbb60e01b17905261150c908490611511565b505050565b6000611566826040518060400160405280602081526020017f5361666545524332303a206c6f772d6c6576656c2063616c6c206661696c6564815250856001600160a01b03166115e89092919063ffffffff16565b80519091501561150c57808060200190518101906115849190611968565b61150c5760405162461bcd60e51b815260206004820152602a60248201527f5361666545524332303a204552433230206f7065726174696f6e20646964206e6044820152691bdd081cdd58d8d9595960b21b60648201526084015b60405180910390fd5b606061136c8484600085856001600160a01b0385163b61164a5760405162461bcd60e51b815260206004820152601d60248201527f416464726573733a2063616c6c20746f206e6f6e2d636f6e747261637400000060448201526064016115df565b600080866001600160a01b0316858760405161166691906119cb565b60006040518083038185875af1925050503d80600081146116a3576040519150601f19603f3d011682016040523d82523d6000602084013e6116a8565b606091505b50915091506116b88282866116c3565b979650505050505050565b606083156116d257508161136f565b8251156116e25782518084602001fd5b8160405162461bcd60e51b81526004016115df91906119e7565b6040518060e0016040528060006001600160a01b0316815260200160006001600160a01b0316815260200160006001600160a01b03168152602001600081526020016060815260200160608152602001606081525090565b60005b8381101561176f578181015183820152602001611757565b8381111561177e576000848401525b50505050565b6000815180845261179c816020860160208601611754565b601f01601f19169290920160200192915050565b60208152600060018060a01b038084511660208401528060208501511660408401525060408301516117ed60608401826001600160a01b03169052565b5060608301516080830152608083015160e060a0840152611812610100840182611784565b905060a0840151601f19808584030160c08601526118308383611784565b925060c08601519150808584030160e08601525061184e8282611784565b95945050505050565b60008060006060848603121561186c57600080fd5b505081359360208301359350604090920135919050565b60006020828403121561189557600080fd5b5051919050565b6000602082840312156118ae57600080fd5b81516001600160a01b038116811461136f57600080fd5b600181811c908216806118d957607f821691505b6020821081036118f957634e487b7160e01b600052602260045260246000fd5b50919050565b634e487b7160e01b600052601160045260246000fd5b60008219821115611928576119286118ff565b500190565b60008282101561193f5761193f6118ff565b500390565b6001600160a01b039384168152919092166020820152604081019190915260600190565b60006020828403121561197a57600080fd5b8151801515811461136f57600080fd5b60008160001904831182151516156119a4576119a46118ff565b500290565b6000826119c657634e487b7160e01b600052601260045260246000fd5b500490565b600082516119dd818460208701611754565b9190910192915050565b60208152600061136f602083018461178456fea2646970667358221220018385b944ed4e6e70428246b59ab81cbbda45096a91ef1bcf8d99bbac20d7f164736f6c634300080d0033a264697066735822122028237bf923d856e7e1c831a4dfb75865b61ab21d132a5b018cb1514e2dc7d64564736f6c634300080d0033",
    "linkReferences": {}
  }
}