{
  "abi": [
    {
      "inputs": [
        {
          "internalType": "address",
          "name": "_seller",
          "type": "address"
        },
        {
          "internalType": "address",
          "name": "_tokenWanted",
          "type": "address"
        },
        {
          "internalType": "address",
          "name": "_arbitrator",
          "type": "address"
        },
        {
          "internalType": "uint256",
          "name": "_amountWanted",
          "type": "uint256"
        },
        {
          "internalType": "uint256",
          "name": "_protocolFee",
          "type": "uint256"
        },
        {
          "internalType": "uint256",
          "name": "_arbitratorFee",
          "type": "uint256"
        },
        {
          "internalType": "string",
          "name": "_imageURL",
          "type": "string"
        },
        {
          "internalType": "string",
          "name": "_itemName",
          "type": "string"
        },
        {
          "internalType": "string",
          "name": "_itemDesc",
          "type": "string"
        },
        {
          "internalType": "uint256",
          "name": "_blockCreated",
          "type": "uint256"
        }
      ],
      "stateMutability": "nonpayable",
      "type": "constructor"
    },
    {
      "anonymous": false,
      "inputs": [
        {
          "indexed": false,
          "internalType": "address",
          "name": "arbitrator",
          "type": "address"
        },
        {
          "indexed": false,
          "internalType": "bool",
          "name": "arbitratorConfirm",
          "type": "bool"
        }
      ],
      "name": "ArbitratorConfirmation",
      "type": "event"
    },
    {
      "anonymous": false,
      "inputs": [
        {
          "indexed": false,
          "internalType": "address",
          "name": "buyer",
          "type": "address"
        },
        {
          "indexed": false,
          "internalType": "address",
          "name": "seller",
          "type": "address"
        },
        {
          "indexed": false,
          "internalType": "address",
          "name": "tokenWanted",
          "type": "address"
        },
        {
          "indexed": false,
          "internalType": "uint256",
          "name": "amountReceived",
          "type": "uint256"
        }
      ],
      "name": "ListingArrived",
      "type": "event"
    },
    {
      "anonymous": false,
      "inputs": [
        {
          "indexed": false,
          "internalType": "address",
          "name": "seller",
          "type": "address"
        },
        {
          "indexed": false,
          "internalType": "address",
          "name": "tokenWanted",
          "type": "address"
        },
        {
          "indexed": false,
          "internalType": "uint256",
          "name": "amountWanted",
          "type": "uint256"
        }
      ],
      "name": "ListingCanceled",
      "type": "event"
    },
    {
      "anonymous": false,
      "inputs": [
        {
          "indexed": false,
          "internalType": "address",
          "name": "buyer",
          "type": "address"
        },
        {
          "indexed": false,
          "internalType": "address",
          "name": "seller",
          "type": "address"
        },
        {
          "indexed": false,
          "internalType": "address",
          "name": "tokenWanted",
          "type": "address"
        },
        {
          "indexed": false,
          "internalType": "uint256",
          "name": "amountWanted",
          "type": "uint256"
        }
      ],
      "name": "ListingPurchased",
      "type": "event"
    },
    {
      "anonymous": false,
      "inputs": [
        {
          "indexed": false,
          "internalType": "address",
          "name": "seller",
          "type": "address"
        },
        {
          "indexed": false,
          "internalType": "bool",
          "name": "sellerConfirm",
          "type": "bool"
        }
      ],
      "name": "SellerConfirmation",
      "type": "event"
    },
    {
      "inputs": [],
      "name": "admin",
      "outputs": [
        {
          "internalType": "address",
          "name": "",
          "type": "address"
        }
      ],
      "stateMutability": "view",
      "type": "function"
    },
    {
      "inputs": [],
      "name": "amountWanted",
      "outputs": [
        {
          "internalType": "uint256",
          "name": "",
          "type": "uint256"
        }
      ],
      "stateMutability": "view",
      "type": "function"
    },
    {
      "inputs": [],
      "name": "arbitrator",
      "outputs": [
        {
          "internalType": "address",
          "name": "",
          "type": "address"
        }
      ],
      "stateMutability": "view",
      "type": "function"
    },
    {
      "inputs": [],
      "name": "arbitratorConfirm",
      "outputs": [
        {
          "internalType": "bool",
          "name": "",
          "type": "bool"
        }
      ],
      "stateMutability": "view",
      "type": "function"
    },
    {
      "inputs": [],
      "name": "arbitratorFee",
      "outputs": [
        {
          "internalType": "uint256",
          "name": "",
          "type": "uint256"
        }
      ],
      "stateMutability": "view",
      "type": "function"
    },
    {
      "inputs": [],
      "name": "blockCreated",
      "outputs": [
        {
          "internalType": "uint256",
          "name": "",
          "type": "uint256"
        }
      ],
      "stateMutability": "view",
      "type": "function"
    },
    {
      "inputs": [],
      "name": "buy",
      "outputs": [],
      "stateMutability": "nonpayable",
      "type": "function"
    },
    {
      "inputs": [],
      "name": "buyer",
      "outputs": [
        {
          "internalType": "address",
          "name": "",
          "type": "address"
        }
      ],
      "stateMutability": "view",
      "type": "function"
    },
    {
      "inputs": [],
      "name": "buyerConfirm",
      "outputs": [
        {
          "internalType": "bool",
          "name": "",
          "type": "bool"
        }
      ],
      "stateMutability": "view",
      "type": "function"
    },
    {
      "inputs": [],
      "name": "cancel",
      "outputs": [],
      "stateMutability": "nonpayable",
      "type": "function"
    },
    {
      "inputs": [],
      "name": "confirmArrival",
      "outputs": [],
      "stateMutability": "nonpayable",
      "type": "function"
    },
    {
      "inputs": [],
      "name": "factory",
      "outputs": [
        {
          "internalType": "address",
          "name": "",
          "type": "address"
        }
      ],
      "stateMutability": "view",
      "type": "function"
    },
    {
      "inputs": [],
      "name": "getAdmin",
      "outputs": [
        {
          "internalType": "address",
          "name": "",
          "type": "address"
        }
      ],
      "stateMutability": "view",
      "type": "function"
    },
    {
      "inputs": [],
      "name": "getBuyer",
      "outputs": [
        {
          "internalType": "address",
          "name": "",
          "type": "address"
        }
      ],
      "stateMutability": "view",
      "type": "function"
    },
    {
      "inputs": [],
      "name": "getFactory",
      "outputs": [
        {
          "internalType": "address",
          "name": "",
          "type": "address"
        }
      ],
      "stateMutability": "view",
      "type": "function"
    },
    {
      "inputs": [],
      "name": "getFrontEndData",
      "outputs": [
        {
          "components": [
            {
              "internalType": "address",
              "name": "seller_",
              "type": "address"
            },
            {
              "internalType": "address",
              "name": "arbitrator_",
              "type": "address"
            },
            {
              "internalType": "address",
              "name": "tokenWanted_",
              "type": "address"
            },
            {
              "internalType": "uint256",
              "name": "amountWanted_",
              "type": "uint256"
            },
            {
              "internalType": "string",
              "name": "imageURL_",
              "type": "string"
            },
            {
              "internalType": "string",
              "name": "itemName_",
              "type": "string"
            },
            {
              "internalType": "string",
              "name": "itemDesc_",
              "type": "string"
            },
            {
              "internalType": "uint256",
              "name": "blockCreated_",
              "type": "uint256"
            }
          ],
          "internalType": "struct SingleItemListing.localVars",
          "name": "",
          "type": "tuple"
        }
      ],
      "stateMutability": "view",
      "type": "function"
    },
    {
      "inputs": [],
      "name": "getHasEnded",
      "outputs": [
        {
          "internalType": "bool",
          "name": "",
          "type": "bool"
        }
      ],
      "stateMutability": "view",
      "type": "function"
    },
    {
      "inputs": [],
      "name": "getHasThisBeenReviewed",
      "outputs": [
        {
          "internalType": "bool",
          "name": "",
          "type": "bool"
        }
      ],
      "stateMutability": "view",
      "type": "function"
    },
    {
      "inputs": [],
      "name": "getHasThisSCOREBeenClaimed",
      "outputs": [
        {
          "internalType": "bool",
          "name": "",
          "type": "bool"
        }
      ],
      "stateMutability": "view",
      "type": "function"
    },
    {
      "inputs": [],
      "name": "getSeller",
      "outputs": [
        {
          "internalType": "address",
          "name": "",
          "type": "address"
        }
      ],
      "stateMutability": "view",
      "type": "function"
    },
    {
      "inputs": [],
      "name": "hasEnded",
      "outputs": [
        {
          "internalType": "bool",
          "name": "",
          "type": "bool"
        }
      ],
      "stateMutability": "view",
      "type": "function"
    },
    {
      "inputs": [],
      "name": "hasThisBeenReviewed",
      "outputs": [
        {
          "internalType": "bool",
          "name": "",
          "type": "bool"
        }
      ],
      "stateMutability": "view",
      "type": "function"
    },
    {
      "inputs": [],
      "name": "hasThisSCOREBeenClaimed",
      "outputs": [
        {
          "internalType": "bool",
          "name": "",
          "type": "bool"
        }
      ],
      "stateMutability": "view",
      "type": "function"
    },
    {
      "inputs": [],
      "name": "hasTokens",
      "outputs": [
        {
          "internalType": "bool",
          "name": "",
          "type": "bool"
        }
      ],
      "stateMutability": "view",
      "type": "function"
    },
    {
      "inputs": [
        {
          "internalType": "uint256",
          "name": "x",
          "type": "uint256"
        },
        {
          "internalType": "uint256",
          "name": "y",
          "type": "uint256"
        },
        {
          "internalType": "uint256",
          "name": "z",
          "type": "uint256"
        }
      ],
      "name": "mulDiv",
      "outputs": [
        {
          "internalType": "uint256",
          "name": "",
          "type": "uint256"
        }
      ],
      "stateMutability": "pure",
      "type": "function"
    },
    {
      "inputs": [],
      "name": "protocolFee",
      "outputs": [
        {
          "internalType": "uint256",
          "name": "",
          "type": "uint256"
        }
      ],
      "stateMutability": "view",
      "type": "function"
    },
    {
      "inputs": [],
      "name": "purchased",
      "outputs": [
        {
          "internalType": "bool",
          "name": "",
          "type": "bool"
        }
      ],
      "stateMutability": "view",
      "type": "function"
    },
    {
      "inputs": [],
      "name": "returnAssetsToBuyer",
      "outputs": [],
      "stateMutability": "nonpayable",
      "type": "function"
    },
    {
      "inputs": [],
      "name": "reviewSeller",
      "outputs": [],
      "stateMutability": "nonpayable",
      "type": "function"
    },
    {
      "inputs": [],
      "name": "seller",
      "outputs": [
        {
          "internalType": "address",
          "name": "",
          "type": "address"
        }
      ],
      "stateMutability": "view",
      "type": "function"
    },
    {
      "inputs": [],
      "name": "sellerClaim",
      "outputs": [
        {
          "internalType": "bool",
          "name": "",
          "type": "bool"
        }
      ],
      "stateMutability": "nonpayable",
      "type": "function"
    },
    {
      "inputs": [],
      "name": "sellerConfirm",
      "outputs": [
        {
          "internalType": "bool",
          "name": "",
          "type": "bool"
        }
      ],
      "stateMutability": "view",
      "type": "function"
    },
    {
      "inputs": [],
      "name": "setHasThisScoreBeenClaimed",
      "outputs": [],
      "stateMutability": "nonpayable",
      "type": "function"
    },
    {
      "inputs": [],
      "name": "tokenWanted",
      "outputs": [
        {
          "internalType": "address",
          "name": "",
          "type": "address"
        }
      ],
      "stateMutability": "view",
      "type": "function"
    }
  ],
  "bytecode": {
    "object": "0x6101806040526000805461ffff191690556001805464ffffffffff60a01b191690553480156200002e57600080fd5b506040516200225e3803806200225e8339810160408190526200005191620002ea565b3360808190526001600160a01b038b811660a0528a811660c05260e089905289166101005261012087905261014086905260408051638da5cb5b60e01b81529051638da5cb5b916004808201926020929091908290030181865afa158015620000be573d6000803e3d6000fd5b505050506040513d601f19601f82011682018060405250810190620000e49190620003de565b600180546001600160a01b0319166001600160a01b03929092169190911790558351620001199060029060208701906200015a565b5082516200012f9060039060208601906200015a565b508151620001459060049060208501906200015a565b5061016052506200043f975050505050505050565b828054620001689062000403565b90600052602060002090601f0160209004810192826200018c5760008555620001d7565b82601f10620001a757805160ff1916838001178555620001d7565b82800160010185558215620001d7579182015b82811115620001d7578251825591602001919060010190620001ba565b50620001e5929150620001e9565b5090565b5b80821115620001e55760008155600101620001ea565b80516001600160a01b03811681146200021857600080fd5b919050565b634e487b7160e01b600052604160045260246000fd5b600082601f8301126200024557600080fd5b81516001600160401b03808211156200026257620002626200021d565b604051601f8301601f19908116603f011681019082821181831017156200028d576200028d6200021d565b81604052838152602092508683858801011115620002aa57600080fd5b600091505b83821015620002ce5785820183015181830184015290820190620002af565b83821115620002e05760008385830101525b9695505050505050565b6000806000806000806000806000806101408b8d0312156200030b57600080fd5b620003168b62000200565b99506200032660208c0162000200565b98506200033660408c0162000200565b60608c015160808d015160a08e015160c08f0151939b50919950975095506001600160401b03808211156200036a57600080fd5b620003788e838f0162000233565b955060e08d01519150808211156200038f57600080fd5b6200039d8e838f0162000233565b94506101008d0151915080821115620003b557600080fd5b50620003c48d828e0162000233565b9250506101208b015190509295989b9194979a5092959850565b600060208284031215620003f157600080fd5b620003fc8262000200565b9392505050565b600181811c908216806200041857607f821691505b6020821081036200043957634e487b7160e01b600052602260045260246000fd5b50919050565b60805160a05160c05160e05161010051610120516101405161016051611c7e620005e0600039600081816102920152610f9e0152600081816102c701526110a8015260008181610442015261105701526000818161035a0152818161086701528181610abb01528181610c8a01528181610ccd01528181610d7301528181611003015261129f01526000818161049001528181610b7d01528181610dc20152818161103601528181611087015281816110e7015261138f01526000818161033301528181610596015281816106a801528181610764015281816107eb015281816108f401528181610b5501528181610d9b01528181611143015281816111c0015281816112700152818161136901526114c7015260008181610210015281816104bf015281816105b8015281816106ca0152818161078601528181610a8801528181610b2d01528181610bd901528181610c1c01528181610d4e015281816113410152818161141201526114a50152600081816103cd01528181610469015281816109510152818161099401528181610a2401526115d10152611c7e6000f3fe608060405234801561001057600080fd5b50600436106102065760003560e01c8063879f9c961161011a578063c45a0155116100ad578063ea8a1af01161007c578063ea8a1af0146104e3578063ec10f769146104eb578063ecb70fb7146104fd578063f851a4401461050a578063fa2b9a681461051d57600080fd5b8063c45a015514610464578063ca5f42821461048b578063d63fa146146104b2578063dbd0e1b6146104bd57600080fd5b8063a6f2ae3a116100e9578063a6f2ae3a1461040e578063a95c079814610416578063aa9a09121461042a578063b0e21e8a1461043d57600080fd5b8063879f9c96146103b957806388cc58e4146103cb578063a403eb2d146103f1578063a60f6811146103f957600080fd5b8063601a68381161019d5780636cc6cde11161016c5780636cc6cde1146103555780636e9960c31461037c5780637150d8ae14610384578063789015831461039d5780637c81ed24146103b157600080fd5b8063601a683814610305578063603daf9a1461030f5780636a1c00dc146103265780636a3b83551461032e57600080fd5b80634e989a4c116101d95780634e989a4c1461028d57806351aecca4146102c2578063551f1813146102e9578063582f0e16146102fd57600080fd5b806308551a531461020b5780630b8712c31461024f5780631183dbed146102675780634090613d1461027b575b600080fd5b6102327f000000000000000000000000000000000000000000000000000000000000000081565b6040516001600160a01b0390911681526020015b60405180910390f35b610257610531565b6040519015158152602001610246565b60015461025790600160a01b900460ff1681565b600154600160b81b900460ff16610257565b6102b47f000000000000000000000000000000000000000000000000000000000000000081565b604051908152602001610246565b6102b47f000000000000000000000000000000000000000000000000000000000000000081565b60015461025790600160c01b900460ff1681565b6102576107c9565b61030d61085c565b005b6000546201000090046001600160a01b0316610232565b61030d610946565b6102327f000000000000000000000000000000000000000000000000000000000000000081565b6102327f000000000000000000000000000000000000000000000000000000000000000081565b610232610990565b600054610232906201000090046001600160a01b031681565b60015461025790600160b81b900460ff1681565b61030d610a19565b60005461025790610100900460ff1681565b7f0000000000000000000000000000000000000000000000000000000000000000610232565b61030d610a63565b610401610d34565b60405161024691906118ec565b61030d610fc7565b60015461025790600160b01b900460ff1681565b6102b46104383660046119b1565b6113e6565b6102b47f000000000000000000000000000000000000000000000000000000000000000081565b6102327f000000000000000000000000000000000000000000000000000000000000000081565b6102b47f000000000000000000000000000000000000000000000000000000000000000081565b60005460ff16610257565b7f0000000000000000000000000000000000000000000000000000000000000000610232565b61030d611407565b600154600160c01b900460ff16610257565b6000546102579060ff1681565b600154610232906001600160a01b031681565b60015461025790600160a81b900460ff1681565b60018054600091600160a01b90910460ff16151514801561055f575060018054600160a81b900460ff161515145b8015610578575060005460ff6101009091041615156001145b15610647576040516370a0823160e01b8152306004820152610633907f0000000000000000000000000000000000000000000000000000000000000000907f0000000000000000000000000000000000000000000000000000000000000000906001600160a01b038316906370a08231906024015b602060405180830381865afa15801561060a573d6000803e3d6000fd5b505050506040513d601f19601f8201168201806040525081019061062e91906119dd565b61154b565b506000805460ff1916600190811790915590565b60018054600160a01b900460ff161515148015610671575060018054600160b01b900460ff161515145b801561068a575060005460ff6101009091041615156001145b15610703576040516370a0823160e01b8152306004820152610633907f0000000000000000000000000000000000000000000000000000000000000000907f0000000000000000000000000000000000000000000000000000000000000000906001600160a01b038316906370a08231906024016105ed565b60018054600160a81b900460ff16151514801561072d575060018054600160b01b900460ff161515145b8015610746575060005460ff6101009091041615156001145b156107bf576040516370a0823160e01b8152306004820152610633907f0000000000000000000000000000000000000000000000000000000000000000907f0000000000000000000000000000000000000000000000000000000000000000906001600160a01b038316906370a08231906024016105ed565b5060005460ff1690565b6040516370a0823160e01b815230600482015260009081906001600160a01b037f000000000000000000000000000000000000000000000000000000000000000016906370a0823190602401602060405180830381865afa158015610832573d6000803e3d6000fd5b505050506040513d601f19601f8201168201806040525081019061085691906119dd565b11905090565b336001600160a01b037f0000000000000000000000000000000000000000000000000000000000000000161461089157600080fd5b600154600160b01b900460ff161580156108b55750600154600160a81b900460ff16155b6108be57600080fd5b60005460ff6101009091041615156001146108d857600080fd5b6000546040516370a0823160e01b8152306004820152610937917f0000000000000000000000000000000000000000000000000000000000000000916001600160a01b03620100009092048216918316906370a08231906024016105ed565b6000805460ff19166001179055565b336001600160a01b037f0000000000000000000000000000000000000000000000000000000000000000161461097b57600080fd5b6001805460ff60b81b1916600160b81b179055565b60007f00000000000000000000000000000000000000000000000000000000000000006001600160a01b0316638da5cb5b6040518163ffffffff1660e01b8152600401602060405180830381865afa1580156109f0573d6000803e3d6000fd5b505050506040513d601f19601f82011682018060405250810190610a149190611a0b565b905090565b336001600160a01b037f00000000000000000000000000000000000000000000000000000000000000001614610a4e57600080fd5b6001805460ff60c01b1916600160c01b179055565b6000546201000090046001600160a01b0316331480610aaa5750336001600160a01b037f000000000000000000000000000000000000000000000000000000000000000016145b80610add5750336001600160a01b037f000000000000000000000000000000000000000000000000000000000000000016145b610ae657600080fd5b6000546201000090046001600160a01b03163303610bcf576001805460ff60a81b1916600160a81b179055600054604080516001600160a01b0362010000909304831681527f0000000000000000000000000000000000000000000000000000000000000000831660208201527f0000000000000000000000000000000000000000000000000000000000000000909216908201527f000000000000000000000000000000000000000000000000000000000000000060608201527fd1adf00770f4f2c244fc8d5cb5241db27fe0b93caefb089fdd86309256788a8a9060800160405180910390a15b6001600160a01b037f0000000000000000000000000000000000000000000000000000000000000000163303610c80576001805460ff60a01b1916600160a01b90811791829055604080517f00000000000000000000000000000000000000000000000000000000000000006001600160a01b031681529190920460ff16151560208201527f2cd5f1b7c9746d6c7f12ba3cac10bb2ea2dd5ed664c19ecfbc25cb962b0d73fd910160405180910390a15b6001600160a01b037f0000000000000000000000000000000000000000000000000000000000000000163303610d32576001805460ff60b01b1916600160b01b90811791829055604080517f00000000000000000000000000000000000000000000000000000000000000006001600160a01b031681529190920460ff16151560208201527fae19fbd29a5cc1375bcc48ea65089a54f7bfdff538fbcf979a0d75c072c324af91015b60405180910390a15b565b610d3c611830565b610d44611830565b6001600160a01b037f0000000000000000000000000000000000000000000000000000000000000000811682527f0000000000000000000000000000000000000000000000000000000000000000811660208301527f00000000000000000000000000000000000000000000000000000000000000001660408201527f0000000000000000000000000000000000000000000000000000000000000000606082015260038054610df390611a28565b80601f0160208091040260200160405190810160405280929190818152602001828054610e1f90611a28565b8015610e6c5780601f10610e4157610100808354040283529160200191610e6c565b820191906000526020600020905b815481529060010190602001808311610e4f57829003601f168201915b50505050508160a0018190525060028054610e8690611a28565b80601f0160208091040260200160405190810160405280929190818152602001828054610eb290611a28565b8015610eff5780601f10610ed457610100808354040283529160200191610eff565b820191906000526020600020905b815481529060010190602001808311610ee257829003601f168201915b5050505050816080018190525060048054610f1990611a28565b80601f0160208091040260200160405190810160405280929190818152602001828054610f4590611a28565b8015610f925780601f10610f6757610100808354040283529160200191610f92565b820191906000526020600020905b815481529060010190602001808311610f7557829003601f168201915b505050505060c08201527f000000000000000000000000000000000000000000000000000000000000000060e0820152919050565b600054610100900460ff1615610fdc57600080fd5b6000546201000090046001600160a01b031633148015906110265750336001600160a01b037f00000000000000000000000000000000000000000000000000000000000000001614155b61102f57600080fd5b600061107e7f00000000000000000000000000000000000000000000000000000000000000007f00000000000000000000000000000000000000000000000000000000000000006127106113e6565b905060006110cf7f00000000000000000000000000000000000000000000000000000000000000007f00000000000000000000000000000000000000000000000000000000000000006127106113e6565b905060006110dd8284611a78565b9050600061110b827f0000000000000000000000000000000000000000000000000000000000000000611a90565b6000805462010000600160b01b03191633620100008102919091179091556040516323b872dd60e01b81529192506001600160a01b037f000000000000000000000000000000000000000000000000000000000000000016916323b872dd9161117a9130908690600401611aa7565b6020604051808303816000875af1158015611199573d6000803e3d6000fd5b505050506040513d601f19601f820116820180604052508101906111bd9190611acb565b507f00000000000000000000000000000000000000000000000000000000000000006001600160a01b03166323b872dd336111f6610990565b876040518463ffffffff1660e01b815260040161121593929190611aa7565b6020604051808303816000875af1158015611234573d6000803e3d6000fd5b505050506040513d601f19601f820116820180604052508101906112589190611acb565b506040516323b872dd60e01b81526001600160a01b037f000000000000000000000000000000000000000000000000000000000000000016906323b872dd906112c99033907f0000000000000000000000000000000000000000000000000000000000000000908890600401611aa7565b6020604051808303816000875af11580156112e8573d6000803e3d6000fd5b505050506040513d601f19601f8201168201806040525081019061130c9190611acb565b506000805461ff0019166101001790556113246115a2565b60005460408051620100009092046001600160a01b0390811683527f0000000000000000000000000000000000000000000000000000000000000000811660208401527f000000000000000000000000000000000000000000000000000000000000000016908201527f000000000000000000000000000000000000000000000000000000000000000060608201527f93f7aa200698f7035ffdcd4e6bc9dd9caf7853d59c1465ed93ac8827b6ff5c229060800160405180910390a150505050565b6000816113f38486611aed565b6113fd9190611b0c565b90505b9392505050565b336001600160a01b037f0000000000000000000000000000000000000000000000000000000000000000161461143c57600080fd5b60005460ff161561144c57600080fd5b600054610100900460ff161561146157600080fd5b6000805460ff191660011790556040516370a0823160e01b81523060048201527ffb87149f10f1ffda9c1df55fae0d68fe643c8be0790eec2f859205ed312cd68b907f0000000000000000000000000000000000000000000000000000000000000000907f0000000000000000000000000000000000000000000000000000000000000000906001600160a01b038216906370a0823190602401602060405180830381865afa158015611518573d6000803e3d6000fd5b505050506040513d601f19601f8201168201806040525081019061153c91906119dd565b604051610d2993929190611aa7565b604080516001600160a01b038416602482015260448082018490528251808303909101815260649091019091526020810180516001600160e01b031663a9059cbb60e01b17905261159d908490611645565b505050565b600054604051637f4b182160e01b8152620100009091046001600160a01b0390811660048301523060248301527f00000000000000000000000000000000000000000000000000000000000000001690637f4b1821906044016000604051808303816000875af115801561161a573d6000803e3d6000fd5b505050506040513d6000823e601f3d908101601f191682016040526116429190810190611b54565b50565b600061169a826040518060400160405280602081526020017f5361666545524332303a206c6f772d6c6576656c2063616c6c206661696c6564815250856001600160a01b031661171c9092919063ffffffff16565b80519091501561159d57808060200190518101906116b89190611acb565b61159d5760405162461bcd60e51b815260206004820152602a60248201527f5361666545524332303a204552433230206f7065726174696f6e20646964206e6044820152691bdd081cdd58d8d9595960b21b60648201526084015b60405180910390fd5b60606113fd8484600085856001600160a01b0385163b61177e5760405162461bcd60e51b815260206004820152601d60248201527f416464726573733a2063616c6c20746f206e6f6e2d636f6e74726163740000006044820152606401611713565b600080866001600160a01b0316858760405161179a9190611c19565b60006040518083038185875af1925050503d80600081146117d7576040519150601f19603f3d011682016040523d82523d6000602084013e6117dc565b606091505b50915091506117ec8282866117f7565b979650505050505050565b60608315611806575081611400565b8251156118165782518084602001fd5b8160405162461bcd60e51b81526004016117139190611c35565b60405180610100016040528060006001600160a01b0316815260200160006001600160a01b0316815260200160006001600160a01b0316815260200160008152602001606081526020016060815260200160608152602001600081525090565b60005b838110156118ab578181015183820152602001611893565b838111156118ba576000848401525b50505050565b600081518084526118d8816020860160208601611890565b601f01601f19169290920160200192915050565b602081526119066020820183516001600160a01b03169052565b6000602083015161192260408401826001600160a01b03169052565b5060408301516001600160a01b0381166060840152506060830151608083015260808301516101008060a085015261195e6101208501836118c0565b915060a0850151601f19808685030160c087015261197c84836118c0565b935060c08701519150808685030160e08701525061199a83826118c0565b92505060e085015181850152508091505092915050565b6000806000606084860312156119c657600080fd5b505081359360208301359350604090920135919050565b6000602082840312156119ef57600080fd5b5051919050565b6001600160a01b038116811461164257600080fd5b600060208284031215611a1d57600080fd5b8151611400816119f6565b600181811c90821680611a3c57607f821691505b602082108103611a5c57634e487b7160e01b600052602260045260246000fd5b50919050565b634e487b7160e01b600052601160045260246000fd5b60008219821115611a8b57611a8b611a62565b500190565b600082821015611aa257611aa2611a62565b500390565b6001600160a01b039384168152919092166020820152604081019190915260600190565b600060208284031215611add57600080fd5b8151801515811461140057600080fd5b6000816000190483118215151615611b0757611b07611a62565b500290565b600082611b2957634e487b7160e01b600052601260045260246000fd5b500490565b634e487b7160e01b600052604160045260246000fd5b8051611b4f816119f6565b919050565b60006020808385031215611b6757600080fd5b825167ffffffffffffffff80821115611b7f57600080fd5b818501915085601f830112611b9357600080fd5b815181811115611ba557611ba5611b2e565b8060051b604051601f19603f83011681018181108582111715611bca57611bca611b2e565b604052918252848201925083810185019188831115611be857600080fd5b938501935b82851015611c0d57611bfe85611b44565b84529385019392850192611bed565b98975050505050505050565b60008251611c2b818460208701611890565b9190910192915050565b60208152600061140060208301846118c056fea2646970667358221220014c1ce85d41dc7a4ec4a5432ad409b94d7b5dcf15bdcaab0f49cb9ddafd2f6364736f6c634300080d0033",
    "linkReferences": {}
  }
}