{
  "abi": [
    {
      "inputs": [
        {
          "internalType": "address",
          "name": "_seller",
          "type": "address"
        },
        {
          "internalType": "address",
          "name": "_tokenWanted",
          "type": "address"
        },
        {
          "internalType": "address",
          "name": "_arbitrator",
          "type": "address"
        },
        {
          "internalType": "uint256",
          "name": "_amountWanted",
          "type": "uint256"
        },
        {
          "internalType": "uint256",
          "name": "_protocolFee",
          "type": "uint256"
        },
        {
          "internalType": "uint256",
          "name": "_arbitratorFee",
          "type": "uint256"
        },
        {
          "internalType": "string",
          "name": "_imageURL",
          "type": "string"
        },
        {
          "internalType": "string",
          "name": "_itemName",
          "type": "string"
        },
        {
          "internalType": "string",
          "name": "_itemDesc",
          "type": "string"
        }
      ],
      "stateMutability": "nonpayable",
      "type": "constructor"
    },
    {
      "anonymous": false,
      "inputs": [
        {
          "indexed": false,
          "internalType": "address",
          "name": "arbitrator",
          "type": "address"
        },
        {
          "indexed": false,
          "internalType": "bool",
          "name": "arbitratorConfirm",
          "type": "bool"
        }
      ],
      "name": "ArbitratorConfirmation",
      "type": "event"
    },
    {
      "anonymous": false,
      "inputs": [
        {
          "indexed": false,
          "internalType": "address",
          "name": "buyer",
          "type": "address"
        },
        {
          "indexed": false,
          "internalType": "address",
          "name": "seller",
          "type": "address"
        },
        {
          "indexed": false,
          "internalType": "address",
          "name": "tokenWanted",
          "type": "address"
        },
        {
          "indexed": false,
          "internalType": "uint256",
          "name": "amountReceived",
          "type": "uint256"
        }
      ],
      "name": "ListingArrived",
      "type": "event"
    },
    {
      "anonymous": false,
      "inputs": [
        {
          "indexed": false,
          "internalType": "address",
          "name": "seller",
          "type": "address"
        },
        {
          "indexed": false,
          "internalType": "address",
          "name": "tokenWanted",
          "type": "address"
        },
        {
          "indexed": false,
          "internalType": "uint256",
          "name": "amountWanted",
          "type": "uint256"
        }
      ],
      "name": "ListingCanceled",
      "type": "event"
    },
    {
      "anonymous": false,
      "inputs": [
        {
          "indexed": false,
          "internalType": "address",
          "name": "buyer",
          "type": "address"
        },
        {
          "indexed": false,
          "internalType": "address",
          "name": "seller",
          "type": "address"
        },
        {
          "indexed": false,
          "internalType": "address",
          "name": "tokenWanted",
          "type": "address"
        },
        {
          "indexed": false,
          "internalType": "uint256",
          "name": "amountWanted",
          "type": "uint256"
        }
      ],
      "name": "ListingPurchased",
      "type": "event"
    },
    {
      "anonymous": false,
      "inputs": [
        {
          "indexed": false,
          "internalType": "address",
          "name": "seller",
          "type": "address"
        },
        {
          "indexed": false,
          "internalType": "bool",
          "name": "sellerConfirm",
          "type": "bool"
        }
      ],
      "name": "SellerConfirmation",
      "type": "event"
    },
    {
      "inputs": [],
      "name": "admin",
      "outputs": [
        {
          "internalType": "address",
          "name": "",
          "type": "address"
        }
      ],
      "stateMutability": "view",
      "type": "function"
    },
    {
      "inputs": [],
      "name": "amountWanted",
      "outputs": [
        {
          "internalType": "uint256",
          "name": "",
          "type": "uint256"
        }
      ],
      "stateMutability": "view",
      "type": "function"
    },
    {
      "inputs": [],
      "name": "arbitrator",
      "outputs": [
        {
          "internalType": "address",
          "name": "",
          "type": "address"
        }
      ],
      "stateMutability": "view",
      "type": "function"
    },
    {
      "inputs": [],
      "name": "arbitratorConfirm",
      "outputs": [
        {
          "internalType": "bool",
          "name": "",
          "type": "bool"
        }
      ],
      "stateMutability": "view",
      "type": "function"
    },
    {
      "inputs": [],
      "name": "arbitratorFee",
      "outputs": [
        {
          "internalType": "uint256",
          "name": "",
          "type": "uint256"
        }
      ],
      "stateMutability": "view",
      "type": "function"
    },
    {
      "inputs": [],
      "name": "buy",
      "outputs": [],
      "stateMutability": "nonpayable",
      "type": "function"
    },
    {
      "inputs": [],
      "name": "buyer",
      "outputs": [
        {
          "internalType": "address",
          "name": "",
          "type": "address"
        }
      ],
      "stateMutability": "view",
      "type": "function"
    },
    {
      "inputs": [],
      "name": "buyerConfirm",
      "outputs": [
        {
          "internalType": "bool",
          "name": "",
          "type": "bool"
        }
      ],
      "stateMutability": "view",
      "type": "function"
    },
    {
      "inputs": [],
      "name": "cancel",
      "outputs": [],
      "stateMutability": "nonpayable",
      "type": "function"
    },
    {
      "inputs": [],
      "name": "confirmArrival",
      "outputs": [],
      "stateMutability": "nonpayable",
      "type": "function"
    },
    {
      "inputs": [],
      "name": "factory",
      "outputs": [
        {
          "internalType": "address",
          "name": "",
          "type": "address"
        }
      ],
      "stateMutability": "view",
      "type": "function"
    },
    {
      "inputs": [],
      "name": "getAdmin",
      "outputs": [
        {
          "internalType": "address",
          "name": "",
          "type": "address"
        }
      ],
      "stateMutability": "view",
      "type": "function"
    },
    {
      "inputs": [],
      "name": "getBuyer",
      "outputs": [
        {
          "internalType": "address",
          "name": "",
          "type": "address"
        }
      ],
      "stateMutability": "view",
      "type": "function"
    },
    {
      "inputs": [],
      "name": "getFrontEndData",
      "outputs": [
        {
          "components": [
            {
              "internalType": "address",
              "name": "seller_",
              "type": "address"
            },
            {
              "internalType": "address",
              "name": "arbitrator_",
              "type": "address"
            },
            {
              "internalType": "address",
              "name": "tokenWanted_",
              "type": "address"
            },
            {
              "internalType": "uint256",
              "name": "amountWanted_",
              "type": "uint256"
            },
            {
              "internalType": "string",
              "name": "imageURL_",
              "type": "string"
            },
            {
              "internalType": "string",
              "name": "itemName_",
              "type": "string"
            },
            {
              "internalType": "string",
              "name": "itemDesc_",
              "type": "string"
            }
          ],
          "internalType": "struct SingleItemListing.localVars",
          "name": "",
          "type": "tuple"
        }
      ],
      "stateMutability": "view",
      "type": "function"
    },
    {
      "inputs": [],
      "name": "getHasEnded",
      "outputs": [
        {
          "internalType": "bool",
          "name": "",
          "type": "bool"
        }
      ],
      "stateMutability": "view",
      "type": "function"
    },
    {
      "inputs": [],
      "name": "getHasThisSCOREBeenClaimed",
      "outputs": [
        {
          "internalType": "bool",
          "name": "",
          "type": "bool"
        }
      ],
      "stateMutability": "view",
      "type": "function"
    },
    {
      "inputs": [],
      "name": "hasEnded",
      "outputs": [
        {
          "internalType": "bool",
          "name": "",
          "type": "bool"
        }
      ],
      "stateMutability": "view",
      "type": "function"
    },
    {
      "inputs": [],
      "name": "hasThisBeenReviewed",
      "outputs": [
        {
          "internalType": "bool",
          "name": "",
          "type": "bool"
        }
      ],
      "stateMutability": "view",
      "type": "function"
    },
    {
      "inputs": [],
      "name": "hasThisSCOREBeenClaimed",
      "outputs": [
        {
          "internalType": "bool",
          "name": "",
          "type": "bool"
        }
      ],
      "stateMutability": "view",
      "type": "function"
    },
    {
      "inputs": [],
      "name": "hasTokens",
      "outputs": [
        {
          "internalType": "bool",
          "name": "",
          "type": "bool"
        }
      ],
      "stateMutability": "view",
      "type": "function"
    },
    {
      "inputs": [
        {
          "internalType": "uint256",
          "name": "x",
          "type": "uint256"
        },
        {
          "internalType": "uint256",
          "name": "y",
          "type": "uint256"
        },
        {
          "internalType": "uint256",
          "name": "z",
          "type": "uint256"
        }
      ],
      "name": "mulDiv",
      "outputs": [
        {
          "internalType": "uint256",
          "name": "",
          "type": "uint256"
        }
      ],
      "stateMutability": "pure",
      "type": "function"
    },
    {
      "inputs": [],
      "name": "protocolFee",
      "outputs": [
        {
          "internalType": "uint256",
          "name": "",
          "type": "uint256"
        }
      ],
      "stateMutability": "view",
      "type": "function"
    },
    {
      "inputs": [],
      "name": "purchased",
      "outputs": [
        {
          "internalType": "bool",
          "name": "",
          "type": "bool"
        }
      ],
      "stateMutability": "view",
      "type": "function"
    },
    {
      "inputs": [],
      "name": "returnAssetsToBuyer",
      "outputs": [],
      "stateMutability": "nonpayable",
      "type": "function"
    },
    {
      "inputs": [],
      "name": "reviewSeller",
      "outputs": [],
      "stateMutability": "nonpayable",
      "type": "function"
    },
    {
      "inputs": [],
      "name": "seller",
      "outputs": [
        {
          "internalType": "address",
          "name": "",
          "type": "address"
        }
      ],
      "stateMutability": "view",
      "type": "function"
    },
    {
      "inputs": [],
      "name": "sellerClaim",
      "outputs": [
        {
          "internalType": "bool",
          "name": "",
          "type": "bool"
        }
      ],
      "stateMutability": "nonpayable",
      "type": "function"
    },
    {
      "inputs": [],
      "name": "sellerConfirm",
      "outputs": [
        {
          "internalType": "bool",
          "name": "",
          "type": "bool"
        }
      ],
      "stateMutability": "view",
      "type": "function"
    },
    {
      "inputs": [],
      "name": "setHasThisScoreBeenClaimed",
      "outputs": [],
      "stateMutability": "nonpayable",
      "type": "function"
    },
    {
      "inputs": [],
      "name": "tokenWanted",
      "outputs": [
        {
          "internalType": "address",
          "name": "",
          "type": "address"
        }
      ],
      "stateMutability": "view",
      "type": "function"
    }
  ],
  "bytecode": {
    "object": "0x6101606040526000805461ffff191690556001805464ffffffffff60a01b191690553480156200002e57600080fd5b5060405162001ece38038062001ece8339810160408190526200005191620002e5565b3360808190526001600160a01b038a811660a05289811660c05260e088905288166101005261012086905261014085905260408051638da5cb5b60e01b81529051638da5cb5b916004808201926020929091908290030181865afa158015620000be573d6000803e3d6000fd5b505050506040513d601f19601f82011682018060405250810190620000e49190620003ce565b600180546001600160a01b0319166001600160a01b039290921691909117905582516200011990600290602086019062000155565b5081516200012f90600390602085019062000155565b5080516200014590600490602084019062000155565b505050505050505050506200042f565b8280546200016390620003f3565b90600052602060002090601f016020900481019282620001875760008555620001d2565b82601f10620001a257805160ff1916838001178555620001d2565b82800160010185558215620001d2579182015b82811115620001d2578251825591602001919060010190620001b5565b50620001e0929150620001e4565b5090565b5b80821115620001e05760008155600101620001e5565b80516001600160a01b03811681146200021357600080fd5b919050565b634e487b7160e01b600052604160045260246000fd5b600082601f8301126200024057600080fd5b81516001600160401b03808211156200025d576200025d62000218565b604051601f8301601f19908116603f0116810190828211818310171562000288576200028862000218565b81604052838152602092508683858801011115620002a557600080fd5b600091505b83821015620002c95785820183015181830184015290820190620002aa565b83821115620002db5760008385830101525b9695505050505050565b60008060008060008060008060006101208a8c0312156200030557600080fd5b620003108a620001fb565b98506200032060208b01620001fb565b97506200033060408b01620001fb565b60608b015160808c015160a08d015160c08e0151939a50919850965094506001600160401b03808211156200036457600080fd5b620003728d838e016200022e565b945060e08c01519150808211156200038957600080fd5b620003978d838e016200022e565b93506101008c0151915080821115620003af57600080fd5b50620003be8c828d016200022e565b9150509295985092959850929598565b600060208284031215620003e157600080fd5b620003ec82620001fb565b9392505050565b600181811c908216806200040857607f821691505b6020821081036200042957634e487b7160e01b600052602260045260246000fd5b50919050565b60805160a05160c05160e05161010051610120516101405161192c620005a2600039600081816102540152610f3e0152600081816103b70152610eed0152600081816102f5015281816107b601528181610a0a01528181610bd901528181610c1c01528181610cc20152610e9901526000818161040501528181610acc01528181610d1101528181610ecc01528181610f1d01528181610f7d01526111fa0152600081816102ce015281816104e5015281816105f7015281816106b30152818161073a0152818161084301528181610aa401528181610cea01528181610fbb0152818161103a015281816110d5015281816111d101526113320152600081816101e40152818161050701528181610619015281816106d5015281816109d701528181610a7c01528181610b2801528181610b6b01528181610c9d015281816111a90152818161127d01526113100152600081816103de015281816108a0015281816108e30152610973015261192c6000f3fe608060405234801561001057600080fd5b50600436106101da5760003560e01c8063879f9c9611610104578063c45a0155116100a2578063ec10f76911610071578063ec10f7691461043a578063ecb70fb71461044c578063f851a44014610459578063fa2b9a681461046c57600080fd5b8063c45a0155146103d9578063ca5f428214610400578063d63fa14614610427578063ea8a1af01461043257600080fd5b8063a6f2ae3a116100de578063a6f2ae3a14610383578063a95c07981461038b578063aa9a09121461039f578063b0e21e8a146103b257600080fd5b8063879f9c9614610354578063a403eb2d14610366578063a60f68111461036e57600080fd5b8063603daf9a1161017c5780636e9960c31161014b5780636e9960c3146103175780637150d8ae1461031f57806378901583146103385780637c81ed241461034c57600080fd5b8063603daf9a146102aa5780636a1c00dc146102c15780636a3b8355146102c95780636cc6cde1146102f057600080fd5b806351aecca4116101b857806351aecca41461024f578063551f181314610284578063582f0e1614610298578063601a6838146102a057600080fd5b806308551a53146101df5780630b8712c3146102235780631183dbed1461023b575b600080fd5b6102067f000000000000000000000000000000000000000000000000000000000000000081565b6040516001600160a01b0390911681526020015b60405180910390f35b61022b610480565b604051901515815260200161021a565b60015461022b90600160a01b900460ff1681565b6102767f000000000000000000000000000000000000000000000000000000000000000081565b60405190815260200161021a565b60015461022b90600160c01b900460ff1681565b61022b610718565b6102a86107ab565b005b6000546201000090046001600160a01b0316610206565b6102a8610895565b6102067f000000000000000000000000000000000000000000000000000000000000000081565b6102067f000000000000000000000000000000000000000000000000000000000000000081565b6102066108df565b600054610206906201000090046001600160a01b031681565b60015461022b90600160b81b900460ff1681565b6102a8610968565b60005461022b90610100900460ff1681565b6102a86109b2565b610376610c83565b60405161021a91906116ac565b6102a8610e5d565b60015461022b90600160b01b900460ff1681565b6102766103ad366004611753565b611251565b6102767f000000000000000000000000000000000000000000000000000000000000000081565b6102067f000000000000000000000000000000000000000000000000000000000000000081565b6102767f000000000000000000000000000000000000000000000000000000000000000081565b60005460ff1661022b565b6102a8611272565b600154600160c01b900460ff1661022b565b60005461022b9060ff1681565b600154610206906001600160a01b031681565b60015461022b90600160a81b900460ff1681565b60018054600091600160a01b90910460ff1615151480156104ae575060018054600160a81b900460ff161515145b80156104c7575060005460ff6101009091041615156001145b15610596576040516370a0823160e01b8152306004820152610582907f0000000000000000000000000000000000000000000000000000000000000000907f0000000000000000000000000000000000000000000000000000000000000000906001600160a01b038316906370a08231906024015b602060405180830381865afa158015610559573d6000803e3d6000fd5b505050506040513d601f19601f8201168201806040525081019061057d919061177f565b6113b6565b506000805460ff1916600190811790915590565b60018054600160a01b900460ff1615151480156105c0575060018054600160b01b900460ff161515145b80156105d9575060005460ff6101009091041615156001145b15610652576040516370a0823160e01b8152306004820152610582907f0000000000000000000000000000000000000000000000000000000000000000907f0000000000000000000000000000000000000000000000000000000000000000906001600160a01b038316906370a082319060240161053c565b60018054600160a81b900460ff16151514801561067c575060018054600160b01b900460ff161515145b8015610695575060005460ff6101009091041615156001145b1561070e576040516370a0823160e01b8152306004820152610582907f0000000000000000000000000000000000000000000000000000000000000000907f0000000000000000000000000000000000000000000000000000000000000000906001600160a01b038316906370a082319060240161053c565b5060005460ff1690565b6040516370a0823160e01b815230600482015260009081906001600160a01b037f000000000000000000000000000000000000000000000000000000000000000016906370a0823190602401602060405180830381865afa158015610781573d6000803e3d6000fd5b505050506040513d601f19601f820116820180604052508101906107a5919061177f565b11905090565b336001600160a01b037f000000000000000000000000000000000000000000000000000000000000000016146107e057600080fd5b600154600160b01b900460ff161580156108045750600154600160a81b900460ff16155b61080d57600080fd5b60005460ff61010090910416151560011461082757600080fd5b6000546040516370a0823160e01b8152306004820152610886917f0000000000000000000000000000000000000000000000000000000000000000916001600160a01b03620100009092048216918316906370a082319060240161053c565b6000805460ff19166001179055565b336001600160a01b037f000000000000000000000000000000000000000000000000000000000000000016146108ca57600080fd5b6001805460ff60b81b1916600160b81b179055565b60007f00000000000000000000000000000000000000000000000000000000000000006001600160a01b0316638da5cb5b6040518163ffffffff1660e01b8152600401602060405180830381865afa15801561093f573d6000803e3d6000fd5b505050506040513d601f19601f820116820180604052508101906109639190611798565b905090565b336001600160a01b037f0000000000000000000000000000000000000000000000000000000000000000161461099d57600080fd5b6001805460ff60c01b1916600160c01b179055565b6000546201000090046001600160a01b03163314806109f95750336001600160a01b037f000000000000000000000000000000000000000000000000000000000000000016145b80610a2c5750336001600160a01b037f000000000000000000000000000000000000000000000000000000000000000016145b610a3557600080fd5b6000546201000090046001600160a01b03163303610b1e576001805460ff60a81b1916600160a81b179055600054604080516001600160a01b0362010000909304831681527f0000000000000000000000000000000000000000000000000000000000000000831660208201527f0000000000000000000000000000000000000000000000000000000000000000909216908201527f000000000000000000000000000000000000000000000000000000000000000060608201527fd1adf00770f4f2c244fc8d5cb5241db27fe0b93caefb089fdd86309256788a8a9060800160405180910390a15b6001600160a01b037f0000000000000000000000000000000000000000000000000000000000000000163303610bcf576001805460ff60a01b1916600160a01b90811791829055604080517f00000000000000000000000000000000000000000000000000000000000000006001600160a01b031681529190920460ff16151560208201527f2cd5f1b7c9746d6c7f12ba3cac10bb2ea2dd5ed664c19ecfbc25cb962b0d73fd910160405180910390a15b6001600160a01b037f0000000000000000000000000000000000000000000000000000000000000000163303610c81576001805460ff60b01b1916600160b01b90811791829055604080517f00000000000000000000000000000000000000000000000000000000000000006001600160a01b031681529190920460ff16151560208201527fae19fbd29a5cc1375bcc48ea65089a54f7bfdff538fbcf979a0d75c072c324af91015b60405180910390a15b565b610c8b6115f8565b610c936115f8565b6001600160a01b037f0000000000000000000000000000000000000000000000000000000000000000811682527f0000000000000000000000000000000000000000000000000000000000000000811660208301527f00000000000000000000000000000000000000000000000000000000000000001660408201527f0000000000000000000000000000000000000000000000000000000000000000606082015260028054610d42906117c1565b80601f0160208091040260200160405190810160405280929190818152602001828054610d6e906117c1565b8015610dbb5780601f10610d9057610100808354040283529160200191610dbb565b820191906000526020600020905b815481529060010190602001808311610d9e57829003601f168201915b5050505050816080018190525060048054610dd5906117c1565b80601f0160208091040260200160405190810160405280929190818152602001828054610e01906117c1565b8015610e4e5780601f10610e2357610100808354040283529160200191610e4e565b820191906000526020600020905b815481529060010190602001808311610e3157829003601f168201915b505050505060c0820152919050565b600054610100900460ff1615610e7257600080fd5b6000546201000090046001600160a01b03163314801590610ebc5750336001600160a01b037f00000000000000000000000000000000000000000000000000000000000000001614155b610ec557600080fd5b6000610f147f00000000000000000000000000000000000000000000000000000000000000007f0000000000000000000000000000000000000000000000000000000000000000612710611251565b90506000610f657f00000000000000000000000000000000000000000000000000000000000000007f0000000000000000000000000000000000000000000000000000000000000000612710611251565b90506000610f738284611811565b90506000610fa1827f0000000000000000000000000000000000000000000000000000000000000000611829565b6040516323b872dd60e01b81529091506001600160a01b037f000000000000000000000000000000000000000000000000000000000000000016906323b872dd90610ff490339030908690600401611840565b6020604051808303816000875af1158015611013573d6000803e3d6000fd5b505050506040513d601f19601f820116820180604052508101906110379190611864565b507f00000000000000000000000000000000000000000000000000000000000000006001600160a01b03166323b872dd336110706108df565b876040518463ffffffff1660e01b815260040161108f93929190611840565b6020604051808303816000875af11580156110ae573d6000803e3d6000fd5b505050506040513d601f19601f820116820180604052508101906110d29190611864565b507f00000000000000000000000000000000000000000000000000000000000000006001600160a01b03166323b872dd3361110b6108df565b866040518463ffffffff1660e01b815260040161112a93929190611840565b6020604051808303816000875af1158015611149573d6000803e3d6000fd5b505050506040513d601f19601f8201168201806040525081019061116d9190611864565b506000805462010000338102610100600160b01b031990921691909117610100179182905560408051919092046001600160a01b0390811682527f0000000000000000000000000000000000000000000000000000000000000000811660208301527f000000000000000000000000000000000000000000000000000000000000000016918101919091527f000000000000000000000000000000000000000000000000000000000000000060608201527f93f7aa200698f7035ffdcd4e6bc9dd9caf7853d59c1465ed93ac8827b6ff5c229060800160405180910390a150505050565b60008161125e8486611886565b61126891906118a5565b90505b9392505050565b336001600160a01b037f000000000000000000000000000000000000000000000000000000000000000016146112a757600080fd5b60005460ff16156112b757600080fd5b600054610100900460ff16156112cc57600080fd5b6000805460ff191660011790556040516370a0823160e01b81523060048201527ffb87149f10f1ffda9c1df55fae0d68fe643c8be0790eec2f859205ed312cd68b907f0000000000000000000000000000000000000000000000000000000000000000907f0000000000000000000000000000000000000000000000000000000000000000906001600160a01b038216906370a0823190602401602060405180830381865afa158015611383573d6000803e3d6000fd5b505050506040513d601f19601f820116820180604052508101906113a7919061177f565b604051610c7893929190611840565b604080516001600160a01b038416602482015260448082018490528251808303909101815260649091019091526020810180516001600160e01b031663a9059cbb60e01b17905261140890849061140d565b505050565b6000611462826040518060400160405280602081526020017f5361666545524332303a206c6f772d6c6576656c2063616c6c206661696c6564815250856001600160a01b03166114e49092919063ffffffff16565b80519091501561140857808060200190518101906114809190611864565b6114085760405162461bcd60e51b815260206004820152602a60248201527f5361666545524332303a204552433230206f7065726174696f6e20646964206e6044820152691bdd081cdd58d8d9595960b21b60648201526084015b60405180910390fd5b60606112688484600085856001600160a01b0385163b6115465760405162461bcd60e51b815260206004820152601d60248201527f416464726573733a2063616c6c20746f206e6f6e2d636f6e747261637400000060448201526064016114db565b600080866001600160a01b0316858760405161156291906118c7565b60006040518083038185875af1925050503d806000811461159f576040519150601f19603f3d011682016040523d82523d6000602084013e6115a4565b606091505b50915091506115b48282866115bf565b979650505050505050565b606083156115ce57508161126b565b8251156115de5782518084602001fd5b8160405162461bcd60e51b81526004016114db91906118e3565b6040518060e0016040528060006001600160a01b0316815260200160006001600160a01b0316815260200160006001600160a01b03168152602001600081526020016060815260200160608152602001606081525090565b60005b8381101561166b578181015183820152602001611653565b8381111561167a576000848401525b50505050565b60008151808452611698816020860160208601611650565b601f01601f19169290920160200192915050565b60208152600060018060a01b038084511660208401528060208501511660408401525060408301516116e960608401826001600160a01b03169052565b5060608301516080830152608083015160e060a084015261170e610100840182611680565b905060a0840151601f19808584030160c086015261172c8383611680565b925060c08601519150808584030160e08601525061174a8282611680565b95945050505050565b60008060006060848603121561176857600080fd5b505081359360208301359350604090920135919050565b60006020828403121561179157600080fd5b5051919050565b6000602082840312156117aa57600080fd5b81516001600160a01b038116811461126b57600080fd5b600181811c908216806117d557607f821691505b6020821081036117f557634e487b7160e01b600052602260045260246000fd5b50919050565b634e487b7160e01b600052601160045260246000fd5b60008219821115611824576118246117fb565b500190565b60008282101561183b5761183b6117fb565b500390565b6001600160a01b039384168152919092166020820152604081019190915260600190565b60006020828403121561187657600080fd5b8151801515811461126b57600080fd5b60008160001904831182151516156118a0576118a06117fb565b500290565b6000826118c257634e487b7160e01b600052601260045260246000fd5b500490565b600082516118d9818460208701611650565b9190910192915050565b60208152600061126b602083018461168056fea26469706673582212203e31cda3563d0730d69968fcc6da6e0941921a67d3db7d56243c65ec3b7acd8664736f6c634300080d0033",
    "linkReferences": {}
  }
}