{
  "abi": [
    {
      "inputs": [
        {
          "internalType": "address",
          "name": "_seller",
          "type": "address"
        },
        {
          "internalType": "address",
          "name": "_tokenWanted",
          "type": "address"
        },
        {
          "internalType": "address",
          "name": "_arbitrator",
          "type": "address"
        },
        {
          "internalType": "uint256",
          "name": "_amountWanted",
          "type": "uint256"
        },
        {
          "internalType": "uint256",
          "name": "_protocolFee",
          "type": "uint256"
        },
        {
          "internalType": "uint256",
          "name": "_arbitratorFee",
          "type": "uint256"
        },
        {
          "internalType": "string",
          "name": "_imageURL",
          "type": "string"
        },
        {
          "internalType": "string",
          "name": "_itemName",
          "type": "string"
        },
        {
          "internalType": "string",
          "name": "_itemDesc",
          "type": "string"
        }
      ],
      "stateMutability": "nonpayable",
      "type": "constructor"
    },
    {
      "anonymous": false,
      "inputs": [
        {
          "indexed": false,
          "internalType": "address",
          "name": "arbitrator",
          "type": "address"
        },
        {
          "indexed": false,
          "internalType": "bool",
          "name": "arbitratorConfirm",
          "type": "bool"
        }
      ],
      "name": "ArbitratorConfirmation",
      "type": "event"
    },
    {
      "anonymous": false,
      "inputs": [
        {
          "indexed": false,
          "internalType": "address",
          "name": "buyer",
          "type": "address"
        },
        {
          "indexed": false,
          "internalType": "address",
          "name": "seller",
          "type": "address"
        },
        {
          "indexed": false,
          "internalType": "address",
          "name": "tokenWanted",
          "type": "address"
        },
        {
          "indexed": false,
          "internalType": "uint256",
          "name": "amountReceived",
          "type": "uint256"
        }
      ],
      "name": "ListingArrived",
      "type": "event"
    },
    {
      "anonymous": false,
      "inputs": [
        {
          "indexed": false,
          "internalType": "address",
          "name": "seller",
          "type": "address"
        },
        {
          "indexed": false,
          "internalType": "address",
          "name": "tokenWanted",
          "type": "address"
        },
        {
          "indexed": false,
          "internalType": "uint256",
          "name": "amountWanted",
          "type": "uint256"
        }
      ],
      "name": "ListingCanceled",
      "type": "event"
    },
    {
      "anonymous": false,
      "inputs": [
        {
          "indexed": false,
          "internalType": "address",
          "name": "buyer",
          "type": "address"
        },
        {
          "indexed": false,
          "internalType": "address",
          "name": "seller",
          "type": "address"
        },
        {
          "indexed": false,
          "internalType": "address",
          "name": "tokenWanted",
          "type": "address"
        },
        {
          "indexed": false,
          "internalType": "uint256",
          "name": "amountWanted",
          "type": "uint256"
        }
      ],
      "name": "ListingPurchased",
      "type": "event"
    },
    {
      "anonymous": false,
      "inputs": [
        {
          "indexed": false,
          "internalType": "address",
          "name": "seller",
          "type": "address"
        },
        {
          "indexed": false,
          "internalType": "bool",
          "name": "sellerConfirm",
          "type": "bool"
        }
      ],
      "name": "SellerConfirmation",
      "type": "event"
    },
    {
      "inputs": [],
      "name": "admin",
      "outputs": [
        {
          "internalType": "address",
          "name": "",
          "type": "address"
        }
      ],
      "stateMutability": "view",
      "type": "function"
    },
    {
      "inputs": [],
      "name": "amountWanted",
      "outputs": [
        {
          "internalType": "uint256",
          "name": "",
          "type": "uint256"
        }
      ],
      "stateMutability": "view",
      "type": "function"
    },
    {
      "inputs": [],
      "name": "arbitrator",
      "outputs": [
        {
          "internalType": "address",
          "name": "",
          "type": "address"
        }
      ],
      "stateMutability": "view",
      "type": "function"
    },
    {
      "inputs": [],
      "name": "arbitratorConfirm",
      "outputs": [
        {
          "internalType": "bool",
          "name": "",
          "type": "bool"
        }
      ],
      "stateMutability": "view",
      "type": "function"
    },
    {
      "inputs": [],
      "name": "arbitratorFee",
      "outputs": [
        {
          "internalType": "uint256",
          "name": "",
          "type": "uint256"
        }
      ],
      "stateMutability": "view",
      "type": "function"
    },
    {
      "inputs": [],
      "name": "buy",
      "outputs": [],
      "stateMutability": "nonpayable",
      "type": "function"
    },
    {
      "inputs": [],
      "name": "buyer",
      "outputs": [
        {
          "internalType": "address",
          "name": "",
          "type": "address"
        }
      ],
      "stateMutability": "view",
      "type": "function"
    },
    {
      "inputs": [],
      "name": "buyerConfirm",
      "outputs": [
        {
          "internalType": "bool",
          "name": "",
          "type": "bool"
        }
      ],
      "stateMutability": "view",
      "type": "function"
    },
    {
      "inputs": [],
      "name": "cancel",
      "outputs": [],
      "stateMutability": "nonpayable",
      "type": "function"
    },
    {
      "inputs": [],
      "name": "confirmArrival",
      "outputs": [],
      "stateMutability": "nonpayable",
      "type": "function"
    },
    {
      "inputs": [],
      "name": "factory",
      "outputs": [
        {
          "internalType": "address",
          "name": "",
          "type": "address"
        }
      ],
      "stateMutability": "view",
      "type": "function"
    },
    {
      "inputs": [],
      "name": "getAdmin",
      "outputs": [
        {
          "internalType": "address",
          "name": "",
          "type": "address"
        }
      ],
      "stateMutability": "view",
      "type": "function"
    },
    {
      "inputs": [],
      "name": "getBuyer",
      "outputs": [
        {
          "internalType": "address",
          "name": "",
          "type": "address"
        }
      ],
      "stateMutability": "view",
      "type": "function"
    },
    {
      "inputs": [],
      "name": "getFrontEndData",
      "outputs": [
        {
          "components": [
            {
              "internalType": "address",
              "name": "seller_",
              "type": "address"
            },
            {
              "internalType": "address",
              "name": "arbitrator_",
              "type": "address"
            },
            {
              "internalType": "address",
              "name": "tokenWanted_",
              "type": "address"
            },
            {
              "internalType": "uint256",
              "name": "amountWanted_",
              "type": "uint256"
            },
            {
              "internalType": "string",
              "name": "imageURL_",
              "type": "string"
            },
            {
              "internalType": "string",
              "name": "itemName_",
              "type": "string"
            },
            {
              "internalType": "string",
              "name": "itemDesc_",
              "type": "string"
            }
          ],
          "internalType": "struct SingleItemListing.localVars",
          "name": "",
          "type": "tuple"
        }
      ],
      "stateMutability": "view",
      "type": "function"
    },
    {
      "inputs": [],
      "name": "getHasEnded",
      "outputs": [
        {
          "internalType": "bool",
          "name": "",
          "type": "bool"
        }
      ],
      "stateMutability": "view",
      "type": "function"
    },
    {
      "inputs": [],
      "name": "getHasThisBeenReviewed",
      "outputs": [
        {
          "internalType": "bool",
          "name": "",
          "type": "bool"
        }
      ],
      "stateMutability": "view",
      "type": "function"
    },
    {
      "inputs": [],
      "name": "getHasThisSCOREBeenClaimed",
      "outputs": [
        {
          "internalType": "bool",
          "name": "",
          "type": "bool"
        }
      ],
      "stateMutability": "view",
      "type": "function"
    },
    {
      "inputs": [],
      "name": "getSeller",
      "outputs": [
        {
          "internalType": "address",
          "name": "",
          "type": "address"
        }
      ],
      "stateMutability": "view",
      "type": "function"
    },
    {
      "inputs": [],
      "name": "hasEnded",
      "outputs": [
        {
          "internalType": "bool",
          "name": "",
          "type": "bool"
        }
      ],
      "stateMutability": "view",
      "type": "function"
    },
    {
      "inputs": [],
      "name": "hasThisBeenReviewed",
      "outputs": [
        {
          "internalType": "bool",
          "name": "",
          "type": "bool"
        }
      ],
      "stateMutability": "view",
      "type": "function"
    },
    {
      "inputs": [],
      "name": "hasThisSCOREBeenClaimed",
      "outputs": [
        {
          "internalType": "bool",
          "name": "",
          "type": "bool"
        }
      ],
      "stateMutability": "view",
      "type": "function"
    },
    {
      "inputs": [],
      "name": "hasTokens",
      "outputs": [
        {
          "internalType": "bool",
          "name": "",
          "type": "bool"
        }
      ],
      "stateMutability": "view",
      "type": "function"
    },
    {
      "inputs": [
        {
          "internalType": "uint256",
          "name": "x",
          "type": "uint256"
        },
        {
          "internalType": "uint256",
          "name": "y",
          "type": "uint256"
        },
        {
          "internalType": "uint256",
          "name": "z",
          "type": "uint256"
        }
      ],
      "name": "mulDiv",
      "outputs": [
        {
          "internalType": "uint256",
          "name": "",
          "type": "uint256"
        }
      ],
      "stateMutability": "pure",
      "type": "function"
    },
    {
      "inputs": [],
      "name": "protocolFee",
      "outputs": [
        {
          "internalType": "uint256",
          "name": "",
          "type": "uint256"
        }
      ],
      "stateMutability": "view",
      "type": "function"
    },
    {
      "inputs": [],
      "name": "purchased",
      "outputs": [
        {
          "internalType": "bool",
          "name": "",
          "type": "bool"
        }
      ],
      "stateMutability": "view",
      "type": "function"
    },
    {
      "inputs": [],
      "name": "returnAssetsToBuyer",
      "outputs": [],
      "stateMutability": "nonpayable",
      "type": "function"
    },
    {
      "inputs": [],
      "name": "reviewSeller",
      "outputs": [],
      "stateMutability": "nonpayable",
      "type": "function"
    },
    {
      "inputs": [],
      "name": "seller",
      "outputs": [
        {
          "internalType": "address",
          "name": "",
          "type": "address"
        }
      ],
      "stateMutability": "view",
      "type": "function"
    },
    {
      "inputs": [],
      "name": "sellerClaim",
      "outputs": [
        {
          "internalType": "bool",
          "name": "",
          "type": "bool"
        }
      ],
      "stateMutability": "nonpayable",
      "type": "function"
    },
    {
      "inputs": [],
      "name": "sellerConfirm",
      "outputs": [
        {
          "internalType": "bool",
          "name": "",
          "type": "bool"
        }
      ],
      "stateMutability": "view",
      "type": "function"
    },
    {
      "inputs": [],
      "name": "setHasThisScoreBeenClaimed",
      "outputs": [],
      "stateMutability": "nonpayable",
      "type": "function"
    },
    {
      "inputs": [],
      "name": "tokenWanted",
      "outputs": [
        {
          "internalType": "address",
          "name": "",
          "type": "address"
        }
      ],
      "stateMutability": "view",
      "type": "function"
    }
  ],
  "bytecode": {
    "object": "0x6101606040526000805461ffff191690556001805464ffffffffff60a01b191690553480156200002e57600080fd5b5060405162001f4d38038062001f4d8339810160408190526200005191620002e5565b3360808190526001600160a01b038a811660a05289811660c05260e088905288166101005261012086905261014085905260408051638da5cb5b60e01b81529051638da5cb5b916004808201926020929091908290030181865afa158015620000be573d6000803e3d6000fd5b505050506040513d601f19601f82011682018060405250810190620000e49190620003ce565b600180546001600160a01b0319166001600160a01b039290921691909117905582516200011990600290602086019062000155565b5081516200012f90600390602085019062000155565b5080516200014590600490602084019062000155565b505050505050505050506200042f565b8280546200016390620003f3565b90600052602060002090601f016020900481019282620001875760008555620001d2565b82601f10620001a257805160ff1916838001178555620001d2565b82800160010185558215620001d2579182015b82811115620001d2578251825591602001919060010190620001b5565b50620001e0929150620001e4565b5090565b5b80821115620001e05760008155600101620001e5565b80516001600160a01b03811681146200021357600080fd5b919050565b634e487b7160e01b600052604160045260246000fd5b600082601f8301126200024057600080fd5b81516001600160401b03808211156200025d576200025d62000218565b604051601f8301601f19908116603f0116810190828211818310171562000288576200028862000218565b81604052838152602092508683858801011115620002a557600080fd5b600091505b83821015620002c95785820183015181830184015290820190620002aa565b83821115620002db5760008385830101525b9695505050505050565b60008060008060008060008060006101208a8c0312156200030557600080fd5b620003108a620001fb565b98506200032060208b01620001fb565b97506200033060408b01620001fb565b60608b015160808c015160a08d015160c08e0151939a50919850965094506001600160401b03808211156200036457600080fd5b620003728d838e016200022e565b945060e08c01519150808211156200038957600080fd5b620003978d838e016200022e565b93506101008c0151915080821115620003af57600080fd5b50620003be8c828d016200022e565b9150509295985092959850929598565b600060208284031215620003e157600080fd5b620003ec82620001fb565b9392505050565b600181811c908216806200040857607f821691505b6020821081036200042957634e487b7160e01b600052602260045260246000fd5b50919050565b60805160a05160c05160e05161010051610120516101405161199d620005b06000396000818161027c0152610f8c0152600081816103df0152610f3b01526000818161031d0152818161080401528181610a5801528181610c2701528181610c6a01528181610d1001528181610ee7015261118301526000818161042d01528181610b1a01528181610d5f01528181610f1a01528181610f6b01528181610fcb015261126b0152600081816102f6015281816105330152818161064501528181610701015281816107880152818161089101528181610af201528181610d3801528181611027015281816110a4015281816111540152818161124301526113a30152600081816101fa0152818161045c01528181610555015281816106670152818161072301528181610a2501528181610aca01528181610b7601528181610bb901528181610ceb0152818161121b015281816112ee0152611381015260008181610406015281816108ee0152818161093101526109c1015261199d6000f3fe608060405234801561001057600080fd5b50600436106101f05760003560e01c8063879f9c961161010f578063ca5f4282116100a2578063ec10f76911610071578063ec10f76914610488578063ecb70fb71461049a578063f851a440146104a7578063fa2b9a68146104ba57600080fd5b8063ca5f428214610428578063d63fa1461461044f578063dbd0e1b61461045a578063ea8a1af01461048057600080fd5b8063a95c0798116100de578063a95c0798146103b3578063aa9a0912146103c7578063b0e21e8a146103da578063c45a01551461040157600080fd5b8063879f9c961461037c578063a403eb2d1461038e578063a60f681114610396578063a6f2ae3a146103ab57600080fd5b8063603daf9a116101875780636e9960c3116101565780636e9960c31461033f5780637150d8ae1461034757806378901583146103605780637c81ed241461037457600080fd5b8063603daf9a146102d25780636a1c00dc146102e95780636a3b8355146102f15780636cc6cde11461031857600080fd5b806351aecca4116101c357806351aecca414610277578063551f1813146102ac578063582f0e16146102c0578063601a6838146102c857600080fd5b806308551a53146101f55780630b8712c3146102395780631183dbed146102515780634090613d14610265575b600080fd5b61021c7f000000000000000000000000000000000000000000000000000000000000000081565b6040516001600160a01b0390911681526020015b60405180910390f35b6102416104ce565b6040519015158152602001610230565b60015461024190600160a01b900460ff1681565b600154600160b81b900460ff16610241565b61029e7f000000000000000000000000000000000000000000000000000000000000000081565b604051908152602001610230565b60015461024190600160c01b900460ff1681565b610241610766565b6102d06107f9565b005b6000546201000090046001600160a01b031661021c565b6102d06108e3565b61021c7f000000000000000000000000000000000000000000000000000000000000000081565b61021c7f000000000000000000000000000000000000000000000000000000000000000081565b61021c61092d565b60005461021c906201000090046001600160a01b031681565b60015461024190600160b81b900460ff1681565b6102d06109b6565b60005461024190610100900460ff1681565b6102d0610a00565b61039e610cd1565b604051610230919061171d565b6102d0610eab565b60015461024190600160b01b900460ff1681565b61029e6103d53660046117c4565b6112c2565b61029e7f000000000000000000000000000000000000000000000000000000000000000081565b61021c7f000000000000000000000000000000000000000000000000000000000000000081565b61029e7f000000000000000000000000000000000000000000000000000000000000000081565b60005460ff16610241565b7f000000000000000000000000000000000000000000000000000000000000000061021c565b6102d06112e3565b600154600160c01b900460ff16610241565b6000546102419060ff1681565b60015461021c906001600160a01b031681565b60015461024190600160a81b900460ff1681565b60018054600091600160a01b90910460ff1615151480156104fc575060018054600160a81b900460ff161515145b8015610515575060005460ff6101009091041615156001145b156105e4576040516370a0823160e01b81523060048201526105d0907f0000000000000000000000000000000000000000000000000000000000000000907f0000000000000000000000000000000000000000000000000000000000000000906001600160a01b038316906370a08231906024015b602060405180830381865afa1580156105a7573d6000803e3d6000fd5b505050506040513d601f19601f820116820180604052508101906105cb91906117f0565b611427565b506000805460ff1916600190811790915590565b60018054600160a01b900460ff16151514801561060e575060018054600160b01b900460ff161515145b8015610627575060005460ff6101009091041615156001145b156106a0576040516370a0823160e01b81523060048201526105d0907f0000000000000000000000000000000000000000000000000000000000000000907f0000000000000000000000000000000000000000000000000000000000000000906001600160a01b038316906370a082319060240161058a565b60018054600160a81b900460ff1615151480156106ca575060018054600160b01b900460ff161515145b80156106e3575060005460ff6101009091041615156001145b1561075c576040516370a0823160e01b81523060048201526105d0907f0000000000000000000000000000000000000000000000000000000000000000907f0000000000000000000000000000000000000000000000000000000000000000906001600160a01b038316906370a082319060240161058a565b5060005460ff1690565b6040516370a0823160e01b815230600482015260009081906001600160a01b037f000000000000000000000000000000000000000000000000000000000000000016906370a0823190602401602060405180830381865afa1580156107cf573d6000803e3d6000fd5b505050506040513d601f19601f820116820180604052508101906107f391906117f0565b11905090565b336001600160a01b037f0000000000000000000000000000000000000000000000000000000000000000161461082e57600080fd5b600154600160b01b900460ff161580156108525750600154600160a81b900460ff16155b61085b57600080fd5b60005460ff61010090910416151560011461087557600080fd5b6000546040516370a0823160e01b81523060048201526108d4917f0000000000000000000000000000000000000000000000000000000000000000916001600160a01b03620100009092048216918316906370a082319060240161058a565b6000805460ff19166001179055565b336001600160a01b037f0000000000000000000000000000000000000000000000000000000000000000161461091857600080fd5b6001805460ff60b81b1916600160b81b179055565b60007f00000000000000000000000000000000000000000000000000000000000000006001600160a01b0316638da5cb5b6040518163ffffffff1660e01b8152600401602060405180830381865afa15801561098d573d6000803e3d6000fd5b505050506040513d601f19601f820116820180604052508101906109b19190611809565b905090565b336001600160a01b037f000000000000000000000000000000000000000000000000000000000000000016146109eb57600080fd5b6001805460ff60c01b1916600160c01b179055565b6000546201000090046001600160a01b0316331480610a475750336001600160a01b037f000000000000000000000000000000000000000000000000000000000000000016145b80610a7a5750336001600160a01b037f000000000000000000000000000000000000000000000000000000000000000016145b610a8357600080fd5b6000546201000090046001600160a01b03163303610b6c576001805460ff60a81b1916600160a81b179055600054604080516001600160a01b0362010000909304831681527f0000000000000000000000000000000000000000000000000000000000000000831660208201527f0000000000000000000000000000000000000000000000000000000000000000909216908201527f000000000000000000000000000000000000000000000000000000000000000060608201527fd1adf00770f4f2c244fc8d5cb5241db27fe0b93caefb089fdd86309256788a8a9060800160405180910390a15b6001600160a01b037f0000000000000000000000000000000000000000000000000000000000000000163303610c1d576001805460ff60a01b1916600160a01b90811791829055604080517f00000000000000000000000000000000000000000000000000000000000000006001600160a01b031681529190920460ff16151560208201527f2cd5f1b7c9746d6c7f12ba3cac10bb2ea2dd5ed664c19ecfbc25cb962b0d73fd910160405180910390a15b6001600160a01b037f0000000000000000000000000000000000000000000000000000000000000000163303610ccf576001805460ff60b01b1916600160b01b90811791829055604080517f00000000000000000000000000000000000000000000000000000000000000006001600160a01b031681529190920460ff16151560208201527fae19fbd29a5cc1375bcc48ea65089a54f7bfdff538fbcf979a0d75c072c324af91015b60405180910390a15b565b610cd9611669565b610ce1611669565b6001600160a01b037f0000000000000000000000000000000000000000000000000000000000000000811682527f0000000000000000000000000000000000000000000000000000000000000000811660208301527f00000000000000000000000000000000000000000000000000000000000000001660408201527f0000000000000000000000000000000000000000000000000000000000000000606082015260028054610d9090611832565b80601f0160208091040260200160405190810160405280929190818152602001828054610dbc90611832565b8015610e095780601f10610dde57610100808354040283529160200191610e09565b820191906000526020600020905b815481529060010190602001808311610dec57829003601f168201915b5050505050816080018190525060048054610e2390611832565b80601f0160208091040260200160405190810160405280929190818152602001828054610e4f90611832565b8015610e9c5780601f10610e7157610100808354040283529160200191610e9c565b820191906000526020600020905b815481529060010190602001808311610e7f57829003601f168201915b505050505060c0820152919050565b600054610100900460ff1615610ec057600080fd5b6000546201000090046001600160a01b03163314801590610f0a5750336001600160a01b037f00000000000000000000000000000000000000000000000000000000000000001614155b610f1357600080fd5b6000610f627f00000000000000000000000000000000000000000000000000000000000000007f00000000000000000000000000000000000000000000000000000000000000006127106112c2565b90506000610fb37f00000000000000000000000000000000000000000000000000000000000000007f00000000000000000000000000000000000000000000000000000000000000006127106112c2565b90506000610fc18284611882565b90506000610fef827f000000000000000000000000000000000000000000000000000000000000000061189a565b6000805462010000600160b01b03191633620100008102919091179091556040516323b872dd60e01b81529192506001600160a01b037f000000000000000000000000000000000000000000000000000000000000000016916323b872dd9161105e91309086906004016118b1565b6020604051808303816000875af115801561107d573d6000803e3d6000fd5b505050506040513d601f19601f820116820180604052508101906110a191906118d5565b507f00000000000000000000000000000000000000000000000000000000000000006001600160a01b03166323b872dd336110da61092d565b876040518463ffffffff1660e01b81526004016110f9939291906118b1565b6020604051808303816000875af1158015611118573d6000803e3d6000fd5b505050506040513d601f19601f8201168201806040525081019061113c91906118d5565b506040516323b872dd60e01b81526001600160a01b037f000000000000000000000000000000000000000000000000000000000000000016906323b872dd906111ad9033907f00000000000000000000000000000000000000000000000000000000000000009088906004016118b1565b6020604051808303816000875af11580156111cc573d6000803e3d6000fd5b505050506040513d601f19601f820116820180604052508101906111f091906118d5565b506000805461ff0019166101001790819055604080516001600160a01b0362010000909304831681527f0000000000000000000000000000000000000000000000000000000000000000831660208201527f0000000000000000000000000000000000000000000000000000000000000000909216908201527f000000000000000000000000000000000000000000000000000000000000000060608201527f93f7aa200698f7035ffdcd4e6bc9dd9caf7853d59c1465ed93ac8827b6ff5c229060800160405180910390a150505050565b6000816112cf84866118f7565b6112d99190611916565b90505b9392505050565b336001600160a01b037f0000000000000000000000000000000000000000000000000000000000000000161461131857600080fd5b60005460ff161561132857600080fd5b600054610100900460ff161561133d57600080fd5b6000805460ff191660011790556040516370a0823160e01b81523060048201527ffb87149f10f1ffda9c1df55fae0d68fe643c8be0790eec2f859205ed312cd68b907f0000000000000000000000000000000000000000000000000000000000000000907f0000000000000000000000000000000000000000000000000000000000000000906001600160a01b038216906370a0823190602401602060405180830381865afa1580156113f4573d6000803e3d6000fd5b505050506040513d601f19601f8201168201806040525081019061141891906117f0565b604051610cc6939291906118b1565b604080516001600160a01b038416602482015260448082018490528251808303909101815260649091019091526020810180516001600160e01b031663a9059cbb60e01b17905261147990849061147e565b505050565b60006114d3826040518060400160405280602081526020017f5361666545524332303a206c6f772d6c6576656c2063616c6c206661696c6564815250856001600160a01b03166115559092919063ffffffff16565b80519091501561147957808060200190518101906114f191906118d5565b6114795760405162461bcd60e51b815260206004820152602a60248201527f5361666545524332303a204552433230206f7065726174696f6e20646964206e6044820152691bdd081cdd58d8d9595960b21b60648201526084015b60405180910390fd5b60606112d98484600085856001600160a01b0385163b6115b75760405162461bcd60e51b815260206004820152601d60248201527f416464726573733a2063616c6c20746f206e6f6e2d636f6e7472616374000000604482015260640161154c565b600080866001600160a01b031685876040516115d39190611938565b60006040518083038185875af1925050503d8060008114611610576040519150601f19603f3d011682016040523d82523d6000602084013e611615565b606091505b5091509150611625828286611630565b979650505050505050565b6060831561163f5750816112dc565b82511561164f5782518084602001fd5b8160405162461bcd60e51b815260040161154c9190611954565b6040518060e0016040528060006001600160a01b0316815260200160006001600160a01b0316815260200160006001600160a01b03168152602001600081526020016060815260200160608152602001606081525090565b60005b838110156116dc5781810151838201526020016116c4565b838111156116eb576000848401525b50505050565b600081518084526117098160208601602086016116c1565b601f01601f19169290920160200192915050565b60208152600060018060a01b0380845116602084015280602085015116604084015250604083015161175a60608401826001600160a01b03169052565b5060608301516080830152608083015160e060a084015261177f6101008401826116f1565b905060a0840151601f19808584030160c086015261179d83836116f1565b925060c08601519150808584030160e0860152506117bb82826116f1565b95945050505050565b6000806000606084860312156117d957600080fd5b505081359360208301359350604090920135919050565b60006020828403121561180257600080fd5b5051919050565b60006020828403121561181b57600080fd5b81516001600160a01b03811681146112dc57600080fd5b600181811c9082168061184657607f821691505b60208210810361186657634e487b7160e01b600052602260045260246000fd5b50919050565b634e487b7160e01b600052601160045260246000fd5b600082198211156118955761189561186c565b500190565b6000828210156118ac576118ac61186c565b500390565b6001600160a01b039384168152919092166020820152604081019190915260600190565b6000602082840312156118e757600080fd5b815180151581146112dc57600080fd5b60008160001904831182151516156119115761191161186c565b500290565b60008261193357634e487b7160e01b600052601260045260246000fd5b500490565b6000825161194a8184602087016116c1565b9190910192915050565b6020815260006112dc60208301846116f156fea2646970667358221220a2d00898e7f2a5db6241c28d47f1e700449d093cf7922a6c07794e95c6007ca064736f6c634300080d0033",
    "linkReferences": {}
  }
}