{
  "abi": [
    {
      "inputs": [
        {
          "internalType": "string",
          "name": "name_",
          "type": "string"
        },
        {
          "internalType": "string",
          "name": "symbol_",
          "type": "string"
        },
        {
          "internalType": "address",
          "name": "owner_",
          "type": "address"
        },
        {
          "internalType": "address",
          "name": "asset_",
          "type": "address"
        },
        {
          "internalType": "uint256",
          "name": "precision_",
          "type": "uint256"
        }
      ],
      "stateMutability": "nonpayable",
      "type": "constructor"
    },
    {
      "anonymous": false,
      "inputs": [
        {
          "indexed": true,
          "internalType": "address",
          "name": "owner",
          "type": "address"
        },
        {
          "indexed": true,
          "internalType": "address",
          "name": "spender",
          "type": "address"
        },
        {
          "indexed": false,
          "internalType": "uint256",
          "name": "value",
          "type": "uint256"
        }
      ],
      "name": "Approval",
      "type": "event"
    },
    {
      "anonymous": false,
      "inputs": [
        {
          "indexed": true,
          "internalType": "address",
          "name": "from",
          "type": "address"
        },
        {
          "indexed": true,
          "internalType": "address",
          "name": "to",
          "type": "address"
        },
        {
          "indexed": false,
          "internalType": "uint256",
          "name": "value",
          "type": "uint256"
        }
      ],
      "name": "Transfer",
      "type": "event"
    },
    {
      "inputs": [],
      "name": "acceptOwnership",
      "outputs": [],
      "stateMutability": "nonpayable",
      "type": "function"
    },
    {
      "inputs": [
        {
          "internalType": "address",
          "name": "owner",
          "type": "address"
        },
        {
          "internalType": "address",
          "name": "spender",
          "type": "address"
        }
      ],
      "name": "allowance",
      "outputs": [
        {
          "internalType": "uint256",
          "name": "",
          "type": "uint256"
        }
      ],
      "stateMutability": "view",
      "type": "function"
    },
    {
      "inputs": [
        {
          "internalType": "address",
          "name": "spender",
          "type": "address"
        },
        {
          "internalType": "uint256",
          "name": "amount",
          "type": "uint256"
        }
      ],
      "name": "approve",
      "outputs": [
        {
          "internalType": "bool",
          "name": "",
          "type": "bool"
        }
      ],
      "stateMutability": "nonpayable",
      "type": "function"
    },
    {
      "inputs": [],
      "name": "asset",
      "outputs": [
        {
          "internalType": "address",
          "name": "",
          "type": "address"
        }
      ],
      "stateMutability": "view",
      "type": "function"
    },
    {
      "inputs": [
        {
          "internalType": "address",
          "name": "account",
          "type": "address"
        }
      ],
      "name": "balanceOf",
      "outputs": [
        {
          "internalType": "uint256",
          "name": "",
          "type": "uint256"
        }
      ],
      "stateMutability": "view",
      "type": "function"
    },
    {
      "inputs": [
        {
          "internalType": "address",
          "name": "account_",
          "type": "address"
        },
        {
          "internalType": "address",
          "name": "token",
          "type": "address"
        }
      ],
      "name": "balanceOfAssets",
      "outputs": [
        {
          "internalType": "uint256",
          "name": "balanceOfAssets_",
          "type": "uint256"
        }
      ],
      "stateMutability": "view",
      "type": "function"
    },
    {
      "inputs": [
        {
          "internalType": "uint256",
          "name": "shares_",
          "type": "uint256"
        }
      ],
      "name": "convertToAssets",
      "outputs": [
        {
          "internalType": "uint256",
          "name": "assets_",
          "type": "uint256"
        }
      ],
      "stateMutability": "view",
      "type": "function"
    },
    {
      "inputs": [
        {
          "internalType": "uint256",
          "name": "assets_",
          "type": "uint256"
        }
      ],
      "name": "convertToShares",
      "outputs": [
        {
          "internalType": "uint256",
          "name": "shares_",
          "type": "uint256"
        }
      ],
      "stateMutability": "view",
      "type": "function"
    },
    {
      "inputs": [],
      "name": "decimals",
      "outputs": [
        {
          "internalType": "uint8",
          "name": "",
          "type": "uint8"
        }
      ],
      "stateMutability": "view",
      "type": "function"
    },
    {
      "inputs": [
        {
          "internalType": "address",
          "name": "spender",
          "type": "address"
        },
        {
          "internalType": "uint256",
          "name": "subtractedValue",
          "type": "uint256"
        }
      ],
      "name": "decreaseAllowance",
      "outputs": [
        {
          "internalType": "bool",
          "name": "",
          "type": "bool"
        }
      ],
      "stateMutability": "nonpayable",
      "type": "function"
    },
    {
      "inputs": [
        {
          "internalType": "uint256",
          "name": "assets_",
          "type": "uint256"
        },
        {
          "internalType": "address",
          "name": "receiver_",
          "type": "address"
        }
      ],
      "name": "deposit",
      "outputs": [
        {
          "internalType": "uint256",
          "name": "shares_",
          "type": "uint256"
        }
      ],
      "stateMutability": "nonpayable",
      "type": "function"
    },
    {
      "inputs": [],
      "name": "freeAssets",
      "outputs": [
        {
          "internalType": "uint256",
          "name": "",
          "type": "uint256"
        }
      ],
      "stateMutability": "view",
      "type": "function"
    },
    {
      "inputs": [
        {
          "internalType": "address",
          "name": "spender",
          "type": "address"
        },
        {
          "internalType": "uint256",
          "name": "addedValue",
          "type": "uint256"
        }
      ],
      "name": "increaseAllowance",
      "outputs": [
        {
          "internalType": "bool",
          "name": "",
          "type": "bool"
        }
      ],
      "stateMutability": "nonpayable",
      "type": "function"
    },
    {
      "inputs": [],
      "name": "issuanceRate",
      "outputs": [
        {
          "internalType": "uint256",
          "name": "",
          "type": "uint256"
        }
      ],
      "stateMutability": "view",
      "type": "function"
    },
    {
      "inputs": [],
      "name": "lastUpdated",
      "outputs": [
        {
          "internalType": "uint256",
          "name": "",
          "type": "uint256"
        }
      ],
      "stateMutability": "view",
      "type": "function"
    },
    {
      "inputs": [
        {
          "internalType": "address",
          "name": "receiver_",
          "type": "address"
        }
      ],
      "name": "maxDeposit",
      "outputs": [
        {
          "internalType": "uint256",
          "name": "maxAssets_",
          "type": "uint256"
        }
      ],
      "stateMutability": "pure",
      "type": "function"
    },
    {
      "inputs": [
        {
          "internalType": "address",
          "name": "receiver_",
          "type": "address"
        }
      ],
      "name": "maxMint",
      "outputs": [
        {
          "internalType": "uint256",
          "name": "maxShares_",
          "type": "uint256"
        }
      ],
      "stateMutability": "pure",
      "type": "function"
    },
    {
      "inputs": [
        {
          "internalType": "address",
          "name": "owner_",
          "type": "address"
        }
      ],
      "name": "maxWithdraw",
      "outputs": [
        {
          "internalType": "uint256",
          "name": "maxAssets_",
          "type": "uint256"
        }
      ],
      "stateMutability": "view",
      "type": "function"
    },
    {
      "inputs": [
        {
          "internalType": "uint256",
          "name": "shares_",
          "type": "uint256"
        },
        {
          "internalType": "address",
          "name": "receiver_",
          "type": "address"
        }
      ],
      "name": "mint",
      "outputs": [
        {
          "internalType": "uint256",
          "name": "assets_",
          "type": "uint256"
        }
      ],
      "stateMutability": "nonpayable",
      "type": "function"
    },
    {
      "inputs": [],
      "name": "name",
      "outputs": [
        {
          "internalType": "string",
          "name": "",
          "type": "string"
        }
      ],
      "stateMutability": "view",
      "type": "function"
    },
    {
      "inputs": [],
      "name": "owner",
      "outputs": [
        {
          "internalType": "address",
          "name": "",
          "type": "address"
        }
      ],
      "stateMutability": "view",
      "type": "function"
    },
    {
      "inputs": [],
      "name": "pendingOwner",
      "outputs": [
        {
          "internalType": "address",
          "name": "",
          "type": "address"
        }
      ],
      "stateMutability": "view",
      "type": "function"
    },
    {
      "inputs": [],
      "name": "precision",
      "outputs": [
        {
          "internalType": "uint256",
          "name": "",
          "type": "uint256"
        }
      ],
      "stateMutability": "view",
      "type": "function"
    },
    {
      "inputs": [
        {
          "internalType": "uint256",
          "name": "assets_",
          "type": "uint256"
        }
      ],
      "name": "previewDeposit",
      "outputs": [
        {
          "internalType": "uint256",
          "name": "shares_",
          "type": "uint256"
        }
      ],
      "stateMutability": "view",
      "type": "function"
    },
    {
      "inputs": [
        {
          "internalType": "uint256",
          "name": "shares_",
          "type": "uint256"
        }
      ],
      "name": "previewMint",
      "outputs": [
        {
          "internalType": "uint256",
          "name": "assets_",
          "type": "uint256"
        }
      ],
      "stateMutability": "view",
      "type": "function"
    },
    {
      "inputs": [
        {
          "internalType": "uint256",
          "name": "shares_",
          "type": "uint256"
        }
      ],
      "name": "previewRedeem",
      "outputs": [
        {
          "internalType": "uint256",
          "name": "assets_",
          "type": "uint256"
        }
      ],
      "stateMutability": "view",
      "type": "function"
    },
    {
      "inputs": [
        {
          "internalType": "uint256",
          "name": "assets_",
          "type": "uint256"
        }
      ],
      "name": "previewWithdraw",
      "outputs": [
        {
          "internalType": "uint256",
          "name": "shares_",
          "type": "uint256"
        }
      ],
      "stateMutability": "view",
      "type": "function"
    },
    {
      "inputs": [
        {
          "internalType": "uint256",
          "name": "shares_",
          "type": "uint256"
        },
        {
          "internalType": "address",
          "name": "receiver_",
          "type": "address"
        },
        {
          "internalType": "address",
          "name": "owner_",
          "type": "address"
        }
      ],
      "name": "redeem",
      "outputs": [
        {
          "internalType": "uint256",
          "name": "assets_",
          "type": "uint256"
        }
      ],
      "stateMutability": "nonpayable",
      "type": "function"
    },
    {
      "inputs": [
        {
          "internalType": "address",
          "name": "pendingOwner_",
          "type": "address"
        }
      ],
      "name": "setPendingOwner",
      "outputs": [],
      "stateMutability": "nonpayable",
      "type": "function"
    },
    {
      "inputs": [],
      "name": "symbol",
      "outputs": [
        {
          "internalType": "string",
          "name": "",
          "type": "string"
        }
      ],
      "stateMutability": "view",
      "type": "function"
    },
    {
      "inputs": [],
      "name": "totalAssets",
      "outputs": [
        {
          "internalType": "uint256",
          "name": "totalManagedAssets_",
          "type": "uint256"
        }
      ],
      "stateMutability": "view",
      "type": "function"
    },
    {
      "inputs": [],
      "name": "totalSupply",
      "outputs": [
        {
          "internalType": "uint256",
          "name": "",
          "type": "uint256"
        }
      ],
      "stateMutability": "view",
      "type": "function"
    },
    {
      "inputs": [
        {
          "internalType": "address",
          "name": "to",
          "type": "address"
        },
        {
          "internalType": "uint256",
          "name": "amount",
          "type": "uint256"
        }
      ],
      "name": "transfer",
      "outputs": [
        {
          "internalType": "bool",
          "name": "",
          "type": "bool"
        }
      ],
      "stateMutability": "nonpayable",
      "type": "function"
    },
    {
      "inputs": [
        {
          "internalType": "address",
          "name": "from",
          "type": "address"
        },
        {
          "internalType": "address",
          "name": "to",
          "type": "address"
        },
        {
          "internalType": "uint256",
          "name": "amount",
          "type": "uint256"
        }
      ],
      "name": "transferFrom",
      "outputs": [
        {
          "internalType": "bool",
          "name": "",
          "type": "bool"
        }
      ],
      "stateMutability": "nonpayable",
      "type": "function"
    },
    {
      "inputs": [
        {
          "internalType": "uint256",
          "name": "vestingPeriod_",
          "type": "uint256"
        }
      ],
      "name": "updateVestingSchedule",
      "outputs": [
        {
          "internalType": "uint256",
          "name": "issuanceRate_",
          "type": "uint256"
        },
        {
          "internalType": "uint256",
          "name": "freeAssets_",
          "type": "uint256"
        }
      ],
      "stateMutability": "nonpayable",
      "type": "function"
    },
    {
      "inputs": [],
      "name": "vestingPeriodFinish",
      "outputs": [
        {
          "internalType": "uint256",
          "name": "",
          "type": "uint256"
        }
      ],
      "stateMutability": "view",
      "type": "function"
    },
    {
      "inputs": [
        {
          "internalType": "uint256",
          "name": "assets_",
          "type": "uint256"
        },
        {
          "internalType": "address",
          "name": "receiver_",
          "type": "address"
        },
        {
          "internalType": "address",
          "name": "owner_",
          "type": "address"
        }
      ],
      "name": "withdraw",
      "outputs": [
        {
          "internalType": "uint256",
          "name": "shares_",
          "type": "uint256"
        }
      ],
      "stateMutability": "nonpayable",
      "type": "function"
    }
  ],
  "bytecode": {
    "object": "0x60a06040526001600c553480156200001657600080fd5b5060405162001f2038038062001f20833981016040819052620000399162000356565b8484836001600160a01b031663313ce5676040518163ffffffff1660e01b8152600401602060405180830381865afa1580156200007a573d6000803e3d6000fd5b505050506040513d601f19601f82011682018060405250810190620000a09190620003ef565b60ff16858360039080519060200190620000bc929190620001c6565b508251620000d2906004906020860190620001c6565b5060028290556001600160a01b038116600081815260208181526040808320869055518581527fddf252ad1be2c89b69c2b068fc378daa952ba7f163c4a11628f55a4df523b3ef910160405180910390a35050600680546001600160a01b0319166001600160a01b03871690811790915591506200019890505760405162461bcd60e51b815260206004820152601860248201527f5244543a433a4f574e45525f5a45524f5f414444524553530000000000000000604482015260640160405180910390fd5b600580546001600160a01b0319166001600160a01b0393909316929092179091556080525062000457915050565b828054620001d4906200041b565b90600052602060002090601f016020900481019282620001f8576000855562000243565b82601f106200021357805160ff191683800117855562000243565b8280016001018555821562000243579182015b828111156200024357825182559160200191906001019062000226565b506200025192915062000255565b5090565b5b8082111562000251576000815560010162000256565b634e487b7160e01b600052604160045260246000fd5b600082601f8301126200029457600080fd5b81516001600160401b0380821115620002b157620002b16200026c565b604051601f8301601f19908116603f01168101908282118183101715620002dc57620002dc6200026c565b81604052838152602092508683858801011115620002f957600080fd5b600091505b838210156200031d5785820183015181830184015290820190620002fe565b838211156200032f5760008385830101525b9695505050505050565b80516001600160a01b03811681146200035157600080fd5b919050565b600080600080600060a086880312156200036f57600080fd5b85516001600160401b03808211156200038757600080fd5b6200039589838a0162000282565b96506020880151915080821115620003ac57600080fd5b50620003bb8882890162000282565b945050620003cc6040870162000339565b9250620003dc6060870162000339565b9150608086015190509295509295909350565b6000602082840312156200040257600080fd5b815160ff811681146200041457600080fd5b9392505050565b600181811c908216806200043057607f821691505b6020821081036200045157634e487b7160e01b600052602260045260246000fd5b50919050565b608051611a9f620004816000396000818161047d015281816105450152610b5d0152611a9f6000f3fe608060405234801561001057600080fd5b50600436106102275760003560e01c806379ba509711610130578063c42069ec116100b8578063d3b5dc3b1161007c578063d3b5dc3b14610478578063dd62ed3e1461049f578063e13aa990146104b2578063e30c3978146104da578063ef8b30f7146104ed57600080fd5b8063c42069ec14610436578063c63d75b61461033b578063c6e6f59214610449578063ce96cb771461045c578063d0b06f5d1461046f57600080fd5b8063a457c2d7116100ff578063a457c2d7146103d7578063a9059cbb146103ea578063b3d7f6b9146103fd578063b460af9414610410578063ba0876521461042357600080fd5b806379ba50971461039f5780638da5cb5b146103a957806394bf804d146103bc57806395d89b41146103cf57600080fd5b8063313ce567116101b35780633c9ae2ba116101825780633c9ae2ba14610332578063402d267d1461033b5780634cdad506146103505780636e553f651461036357806370a082311461037657600080fd5b8063313ce567146102dc57806338d52e0f146102eb57806339509351146103165780633c2f77731461032957600080fd5b80630a28a477116101fa5780630a28a4771461029257806311f240ac146102a557806318160ddd146102ae57806323b872dd146102b657806327964d3a146102c957600080fd5b806301e1d1141461022c57806306fdde031461024757806307a2d13a1461025c578063095ea7b31461026f575b600080fd5b610234610500565b6040519081526020015b60405180910390f35b61024f61058b565b60405161023e9190611797565b61023461026a3660046117ca565b61061d565b61028261027d3660046117ff565b61065c565b604051901515815260200161023e565b6102346102a03660046117ca565b610674565b61023460085481565b600254610234565b6102826102c4366004611829565b6106a2565b6102346102d7366004611865565b6106c6565b6040516012815260200161023e565b6005546102fe906001600160a01b031681565b6040516001600160a01b03909116815260200161023e565b6102826103243660046117ff565b610737565b610234600b5481565b61023460095481565b610234610349366004611898565b5060001990565b61023461035e3660046117ca565b610759565b6102346103713660046118b3565b61076a565b610234610384366004611898565b6001600160a01b031660009081526020819052604090205490565b6103a76107be565b005b6006546102fe906001600160a01b031681565b6102346103ca3660046118b3565b610828565b61024f610868565b6102826103e53660046117ff565b610877565b6102826103f83660046117ff565b6108f2565b61023461040b3660046117ca565b610900565b61023461041e3660046118d6565b61092f565b6102346104313660046118d6565b61097c565b6103a7610444366004611898565b6109bd565b6102346104573660046117ca565b610a2d565b61023461046a366004611898565b610a53565b610234600a5481565b6102347f000000000000000000000000000000000000000000000000000000000000000081565b6102346104ad366004611865565b610a6d565b6104c56104c03660046117ca565b610a98565b6040805192835260208301919091520161023e565b6007546102fe906001600160a01b031681565b6102346104fb3660046117ca565b610c15565b60095460009080820361051557505060085490565b600b54600a5460004283106105335761052e8242611928565b61053d565b61053d8284611928565b6008549091507f000000000000000000000000000000000000000000000000000000000000000061056e838761193f565b6105789190611974565b6105829190611988565b94505050505090565b60606003805461059a906119a0565b80601f01602080910402602001604051908101604052809291908181526020018280546105c6906119a0565b80156106135780601f106105e857610100808354040283529160200191610613565b820191906000526020600020905b8154815290600101906020018083116105f657829003601f168201915b5050505050905090565b60008061062960025490565b90508015610653578061063a610500565b610644908561193f565b61064e9190611974565b610655565b825b9392505050565b60003361066a818585610c20565b5060019392505050565b60008061068060025490565b905080156106535761064e610695828561193f565b61069d610500565b610d44565b6000336106b0858285610d77565b6106bb858585610df1565b506001949350505050565b6040516370a0823160e01b81526001600160a01b038381166004830152600091610655918416906370a0823190602401602060405180830381865afa158015610713573d6000803e3d6000fd5b505050506040513d601f19601f8201168201806040525081019061026a91906119da565b60003361066a81858561074a8383610a6d565b6107549190611988565b610c20565b60006107648261061d565b92915050565b6000600c546001146107975760405162461bcd60e51b815260040161078e906119f3565b60405180910390fd5b6002600c556107b36107a884610c15565b915081848433610fbf565b6001600c5592915050565b6007546001600160a01b031633146108085760405162461bcd60e51b815260206004820152600d60248201526c5244543a414f3a4e4f545f504f60981b604482015260640161078e565b600680546001600160a01b03199081163317909155600780549091169055565b6000600c5460011461084c5760405162461bcd60e51b815260040161078e906119f3565b6002600c556107b38361085e81610900565b9250828433610fbf565b60606004805461059a906119a0565b600033816108858286610a6d565b9050838110156108e55760405162461bcd60e51b815260206004820152602560248201527f45524332303a2064656372656173656420616c6c6f77616e63652062656c6f77604482015264207a65726f60d81b606482015260840161078e565b6106bb8286868403610c20565b60003361066a818585610df1565b60008061090c60025490565b905080156106535761064e61091f610500565b610929908561193f565b82610d44565b6000600c546001146109535760405162461bcd60e51b815260040161078e906119f3565b6002600c5561097061096485610674565b915081858585336110e0565b6001600c559392505050565b6000600c546001146109a05760405162461bcd60e51b815260040161078e906119f3565b6002600c55610970846109b281610759565b9250828585336110e0565b6006546001600160a01b03163314610a0b5760405162461bcd60e51b815260206004820152601160248201527029222a1d29a8279d2727aa2fa7aba722a960791b604482015260640161078e565b600780546001600160a01b0319166001600160a01b0392909216919091179055565b600080610a3960025490565b9050801561065357610a49610500565b610644828561193f565b6005546000906107649083906001600160a01b03166106c6565b6001600160a01b03918216600090815260016020908152604080832093909416825291909152205490565b60065460009081906001600160a01b03163314610aeb5760405162461bcd60e51b815260206004820152601160248201527029222a1d2aab299d2727aa2fa7aba722a960791b604482015260640161078e565b600254600003610b335760405162461bcd60e51b81526020600482015260136024820152725244543a5556533a5a45524f5f535550504c5960681b604482015260640161078e565b610b3b610500565b60088190556005546040516370a0823160e01b815230600482015291925084917f00000000000000000000000000000000000000000000000000000000000000009184916001600160a01b03909116906370a0823190602401602060405180830381865afa158015610bb1573d6000803e3d6000fd5b505050506040513d601f19601f82011682018060405250810190610bd591906119da565b610bdf9190611928565b610be9919061193f565b610bf39190611974565b600981905591508242600a819055610c0b9190611988565b600b559092909150565b600061076482610a2d565b6001600160a01b038316610c825760405162461bcd60e51b8152602060048201526024808201527f45524332303a20617070726f76652066726f6d20746865207a65726f206164646044820152637265737360e01b606482015260840161078e565b6001600160a01b038216610ce35760405162461bcd60e51b815260206004820152602260248201527f45524332303a20617070726f766520746f20746865207a65726f206164647265604482015261737360f01b606482015260840161078e565b6001600160a01b0383811660008181526001602090815260408083209487168084529482529182902085905590518481527f8c5be1e5ebec7d5bd14f71427d1e84f3dd0314c0f7b2291e5b200ac8c7c3b925910160405180910390a3505050565b600080610d518385611a17565b11610d5d576000610d60565b60015b60ff16610d6d8385611974565b6106559190611988565b6000610d838484610a6d565b90506000198114610deb5781811015610dde5760405162461bcd60e51b815260206004820152601d60248201527f45524332303a20696e73756666696369656e7420616c6c6f77616e6365000000604482015260640161078e565b610deb8484848403610c20565b50505050565b6001600160a01b038316610e555760405162461bcd60e51b815260206004820152602560248201527f45524332303a207472616e736665722066726f6d20746865207a65726f206164604482015264647265737360d81b606482015260840161078e565b6001600160a01b038216610eb75760405162461bcd60e51b815260206004820152602360248201527f45524332303a207472616e7366657220746f20746865207a65726f206164647260448201526265737360e81b606482015260840161078e565b6001600160a01b03831660009081526020819052604090205481811015610f2f5760405162461bcd60e51b815260206004820152602660248201527f45524332303a207472616e7366657220616d6f756e7420657863656564732062604482015265616c616e636560d01b606482015260840161078e565b6001600160a01b03808516600090815260208190526040808220858503905591851681529081208054849290610f66908490611988565b92505081905550826001600160a01b0316846001600160a01b03167fddf252ad1be2c89b69c2b068fc378daa952ba7f163c4a11628f55a4df523b3ef84604051610fb291815260200190565b60405180910390a3610deb565b6001600160a01b03821661100b5760405162461bcd60e51b815260206004820152601360248201527229222a1d269d2d22a927afa922a1a2a4ab22a960691b604482015260640161078e565b8361104c5760405162461bcd60e51b81526020600482015260116024820152705244543a4d3a5a45524f5f53484152455360781b604482015260640161078e565b8261108d5760405162461bcd60e51b81526020600482015260116024820152705244543a4d3a5a45524f5f41535345545360781b604482015260640161078e565b611097828561122b565b6000836110a2610500565b6110ac9190611988565b6008819055905060006110bd61130a565b6005549091506110d8906001600160a01b031684308861132f565b505050505050565b6001600160a01b03831661112c5760405162461bcd60e51b815260206004820152601360248201527229222a1d211d2d22a927afa922a1a2a4ab22a960691b604482015260640161078e565b8461116d5760405162461bcd60e51b81526020600482015260116024820152705244543a423a5a45524f5f53484152455360781b604482015260640161078e565b836111ae5760405162461bcd60e51b81526020600482015260116024820152705244543a423a5a45524f5f41535345545360781b604482015260640161078e565b816001600160a01b0316816001600160a01b0316146111d3576111d18186610877565b505b6111dd828661139a565b6000846111e8610500565b6111f29190611928565b60088190559050600061120361130a565b60055490915061121d906001600160a01b031686886114e8565b50505050505050565b505050565b6001600160a01b0382166112815760405162461bcd60e51b815260206004820152601f60248201527f45524332303a206d696e7420746f20746865207a65726f206164647265737300604482015260640161078e565b80600260008282546112939190611988565b90915550506001600160a01b038216600090815260208190526040812080548392906112c0908490611988565b90915550506040518181526001600160a01b038316906000907fddf252ad1be2c89b69c2b068fc378daa952ba7f163c4a11628f55a4df523b3ef9060200160405180910390a35050565b6000600b5442600a8190551161132257600954611325565b60005b6009819055905090565b6040516001600160a01b0380851660248301528316604482015260648101829052610deb9085906323b872dd60e01b906084015b60408051601f198184030181529190526020810180516001600160e01b03166001600160e01b031990931692909217909152611518565b6001600160a01b0382166113fa5760405162461bcd60e51b815260206004820152602160248201527f45524332303a206275726e2066726f6d20746865207a65726f206164647265736044820152607360f81b606482015260840161078e565b6001600160a01b0382166000908152602081905260409020548181101561146e5760405162461bcd60e51b815260206004820152602260248201527f45524332303a206275726e20616d6f756e7420657863656564732062616c616e604482015261636560f01b606482015260840161078e565b6001600160a01b038316600090815260208190526040812083830390556002805484929061149d908490611928565b90915550506040518281526000906001600160a01b038516907fddf252ad1be2c89b69c2b068fc378daa952ba7f163c4a11628f55a4df523b3ef9060200160405180910390a3505050565b6040516001600160a01b03831660248201526044810182905261122690849063a9059cbb60e01b90606401611363565b600061156d826040518060400160405280602081526020017f5361666545524332303a206c6f772d6c6576656c2063616c6c206661696c6564815250856001600160a01b03166115ea9092919063ffffffff16565b805190915015611226578080602001905181019061158b9190611a2b565b6112265760405162461bcd60e51b815260206004820152602a60248201527f5361666545524332303a204552433230206f7065726174696f6e20646964206e6044820152691bdd081cdd58d8d9595960b21b606482015260840161078e565b60606115f98484600085611601565b949350505050565b6060824710156116625760405162461bcd60e51b815260206004820152602660248201527f416464726573733a20696e73756666696369656e742062616c616e636520666f6044820152651c8818d85b1b60d21b606482015260840161078e565b6001600160a01b0385163b6116b95760405162461bcd60e51b815260206004820152601d60248201527f416464726573733a2063616c6c20746f206e6f6e2d636f6e7472616374000000604482015260640161078e565b600080866001600160a01b031685876040516116d59190611a4d565b60006040518083038185875af1925050503d8060008114611712576040519150601f19603f3d011682016040523d82523d6000602084013e611717565b606091505b5091509150611727828286611732565b979650505050505050565b60608315611741575081610655565b8251156117515782518084602001fd5b8160405162461bcd60e51b815260040161078e9190611797565b60005b8381101561178657818101518382015260200161176e565b83811115610deb5750506000910152565b60208152600082518060208401526117b681604085016020870161176b565b601f01601f19169190910160400192915050565b6000602082840312156117dc57600080fd5b5035919050565b80356001600160a01b03811681146117fa57600080fd5b919050565b6000806040838503121561181257600080fd5b61181b836117e3565b946020939093013593505050565b60008060006060848603121561183e57600080fd5b611847846117e3565b9250611855602085016117e3565b9150604084013590509250925092565b6000806040838503121561187857600080fd5b611881836117e3565b915061188f602084016117e3565b90509250929050565b6000602082840312156118aa57600080fd5b610655826117e3565b600080604083850312156118c657600080fd5b8235915061188f602084016117e3565b6000806000606084860312156118eb57600080fd5b833592506118fb602085016117e3565b9150611909604085016117e3565b90509250925092565b634e487b7160e01b600052601160045260246000fd5b60008282101561193a5761193a611912565b500390565b600081600019048311821515161561195957611959611912565b500290565b634e487b7160e01b600052601260045260246000fd5b6000826119835761198361195e565b500490565b6000821982111561199b5761199b611912565b500190565b600181811c908216806119b457607f821691505b6020821081036119d457634e487b7160e01b600052602260045260246000fd5b50919050565b6000602082840312156119ec57600080fd5b5051919050565b6020808252600a90820152691491150e9313d0d2d15160b21b604082015260600190565b600082611a2657611a2661195e565b500690565b600060208284031215611a3d57600080fd5b8151801515811461065557600080fd5b60008251611a5f81846020870161176b565b919091019291505056fea26469706673582212204f63a171ad6abf3bc51a2af02487aed254114ecfa3d548645f2000ec9c1a88bd64736f6c634300080d0033",
    "linkReferences": {}
  }
}